:02000002B0004C
:1040000000400B00206C0B00000006000C000502B5
:084010000401A60F00000000EE
:04401800D4660B005F
:1040200009480A49884208B505D0094A824202D0A7
:10403000121A02F08BFA0748074A0021121A02F0FE
:1040400093FA014808BD00BF00E50320886B0B0010
:1040500070E5032070E50320EDE7032070B5074EFF
:10406000074C00F0ABFEA41BA4080025AC4200D115
:1040700070BD56F8043B98470135F7E73C6B0B00E1
:10408000606B0B0000F022B808B500F07DF9BDE8C8
:10409000084000F04BBE00F00DBD00F00BBD00F07D
:1040A00011BD000008B5034A03490C2000F05EFC76
:1040B000FEE700BF0D470B00E8660B000078B0FA82
:1040C00080F04009704701230370704738B500F055
:1040D00097FF4FF4165100F083FF002000F026FBFD
:1040E00042F210750446002000F020FB001B61F135
:1040F0000001A84271F1000307D200F081FF00F037
:1041000073FF10B900F0C6FCEDE700F079FF00F096
:104110006BFF01210E2001F02FFC01210F2001F087
:104120002BFC0121102001F027FC0021112001F0BF
:1041300023FC0121072001F01FFC0121132001F0C5
:104140001BFC00F0EBFA014B186038BDB4E603200D
:104150002DE9F74315468FB21C4606460021384626
:10416000ADB210EE108AA4B201F043FC0021284643
:1041700001F03FFC0021204601F03BFC76B93146BE
:10418000384601F036FC0021284601F032FC0021BF
:10419000204601F02EFC03B0BDE8F083012E24D0B0
:1041A000022E36D1404601F041FF02460B46002068
:1041B000714901F0DBFD8046894602460B4668A145
:1041C000D1E9000102F0B4F802F09AF9014638464C
:1041D00001F00FFC42464B4663A1D1E9000102F019
:1041E000A7F802F08DF90146CEE7404601F01EFF28
:1041F00002460B460020604901F0B8FD02460B461E
:1042000059A1D1E9000102F093F802F079F90146D1
:10421000B6E7032E25D0042E33D0052E52D0062E1D
:104220006DD0072E00F08780082EB4D1404601F0F3
:10423000FDFE02460B4600204F4901F097FD024665
:104240000B46804689464AA1D1E9000102F070F888
:1042500002F056F90146384601F0CBFB42464B4688
:104260003FE0404601F0E2FE02460B460020424994
:1042700001F07CFD8046894602460B4600203F49FE
:10428000A0E70021384601F0B4FB404601F0CEFE25
:1042900002460B460020384901F068FD02460B46F5
:1042A00031A1D1E9000102F043F802F029F90146F9
:1042B000284601F09EFB0021204603B0BDE8F043F4
:1042C00001F097BB0021384601F093FB404601F016
:1042D000ADFE02460B460020274901F047FD02468D
:1042E0000B4621A1D1E9000102F022F802F008F901
:1042F00001460190284601F07CFB0199DCE7002192
:10430000384601F076FB0021284601F072FB40465A
:1043100001F08CFE02460B460020174901F026FDF5
:1043200002460B4610A1D1E9000102F001F802F0AB
:10433000E7F80146C0E707EE108ADFED117A77EE65
:10434000C77A17EE900A01F071FE02460B46002074
:104350000C4901F0EDFF02F0D3F80146D0E700BFB1
:104360000000000000606D400000000000E06F40B1
:1043700000000000002062400040594000006940F9
:104380000000CA4200002E4070B5112001F01EFB53
:10439000374E384B384D003818BF0120187033782D
:1043A000834218BF307033786BB92B78002B3DD027
:1043B0000021072001F0F1FA0021132001F0EDFAAD
:1043C00000232B7032E02C7884BB0121072001F000
:1043D000E4FA0121132001F0E0FA40F2DC5000F091
:1043E00063FC2146072001F0D8FA2146132001F092
:1043F000D4FA40F2DC5000F057FC0121072001F014
:10440000CCFA0121132001F0C8FA40F2DC5000F090
:104410004BFC2146072001F0C0FA2146132001F091
:10442000BCFA01232B703378002BC1D0134C00F061
:1044300075F92368C01A41F28833984216D900F002
:104440006DF920600E4C0F4D206895ED000A0E4D61
:1044500001302060102355F820000F220E21FFF7B5
:1044600077FE2368082BC4BF0023236070BD00BF04
:1044700074E6032098E50320B0E60320B4E60320A9
:104480009CE5032000E503204C670B0037B5124D77
:10449000124C284601F02EF9114B00931149124B92
:1044A00040F25B72204600F0AFF8104B2360104AD8
:1044B0001048C4F8D0500023214600F0C1F80E4B3C
:1044C0000022C3E900220220A2F580329A6003B0E4
:1044D000BDE8304000F05ABA7CE50320A0E5032097
:1044E00016670B0006670B00FD660B0078670B0074
:1044F00037670B0078E6032070E5032008B5D0F895
:10450000D00003681B6B9847003818BF012008BD16
:10451000F8B506460F461446C4B1D6F8D000036875
:104520001B6B984708B90020F8BDD6F8D000FA2CCC
:1045300003682546A8BFFA25DB682A46394698470E
:1045400083B2E41A9D42A4B2E6D0ECE70120EBE787
:1045500070472DE9F8430646884691461F461D469A
:104560000024D6F8D00003681B6B9847D0B1002D0B
:1045700018DBD6F8D00003681B69984760B1D6F8FD
:10458000D00003685B69984708F804000134A4B2BE
:104590004C4507D03D46ECE70A3D0A202DB200F01D
:1045A00083FBDEE72046BDE8F88370B5044600F1E2
:1045B000220596220021284601F0D6FF6168284690
:1045C00002F012F8D4F8D0002289036829465E6A06
:1045D0000023B047003818BF012070BD10B5D421AA
:1045E0000446FFF75CFD204610BD10B50446D0F828
:1045F000D00003681B6B984720B1D4F8D000036843
:10460000DB6A9847012010BD30B502810A4A0B4D84
:10461000C0E90323039B43610023C0E90051C0E9C3
:104620002F33C0E93133C0E90633C0F8CC300384FE
:10463000A0F8B83030BD00BF36670B009C670B0098
:1046400010B503710023C0E90833C0E90A334163A0
:1046500002604383C361036310BD000008B5024BD1
:104660001B689B68019308BD6802030008B5024BF4
:104670001B68DB68019308BD6802030008B5024BA4
:104680001B685B68019308BD2C02030008B5024B50
:104690001B689B68019308BD2C02030008B5024B00
:1046A0001B68DB68019308BD2C02030008B5024BB0
:1046B0001B681B69019308BD2C02030008B5024B5F
:1046C0001B685B69019308BD2C02030008B5024B0F
:1046D0001B689B6A019308BD2C02030008B5024BBE
:1046E0001B689B6F019308BD2C02030008B5024BA9
:1046F0001B685B69019308BD6C02030008B5024B9F
:104700001B685B68019308BD1802030008B5024BE3
:104710001B68DB68019308BD1802030008B5024B53
:104720001B685B69019308BD1802030008B5024BC2
:104730001B68DB6D019308BD1802030008B5024B2E
:104740001B685B6C019308BD4802030008B5024B6F
:104750001B685B69019308BD6402030008B5024B46
:104760001B681B6A019308BD6402030008B5024B75
:104770001B689B6A019308BD6402030008B5024BE5
:104780001B68DB68019308BD3C02030008B5024BBF
:104790001B681B69019308BD3C02030008B5024B6E
:1047A0001B685B69019308BD3C02030008B5024B1E
:1047B0001B689B69019308BD3C02030008B5024BCE
:1047C0001B68DB69019308BD3C02030008B5024B7E
:1047D0001B681B6A019308BD3C02030008B5024B2D
:1047E0001B689B6A019308BD3C02030008B5024B9D
:1047F0001B681B6C019308BD3C02030008B5024B0B
:104800001B681B6A019308BD2802030008B5024B10
:104810001B685B6A019308BD2802030008B5024BC0
:104820001B689B6A019308BD2802030008B5024B70
:104830001B68DB6A019308BD2802030008B5024B20
:104840001B681B6B019308BD2802030008B5024BCF
:104850001B685B6B019308BD2802030008B5024B7F
:104860001B681B6C019308BD2802030008B5024BAE
:104870001B689B69019308BD3802030008B5024B11
:104880001B68DB69019308BD3802030008B5024BC1
:104890001B681B6A019308BD3802030008B5024B70
:1048A0001B689B6A019308BD3802030008B5024BE0
:1048B0001B681B6B019308BD3802030008B5024B4F
:1048C0001B689B6B019308BD3802030008B5024BBF
:1048D0001B68DB69019308BD3002030008B5024B79
:1048E0001B681B6A019308BD3002030008B5024B28
:1048F0001B681B68019308BD4C02030008B5024BFE
:104900001B685B68019308BD4C02030008B5024BAD
:104910001B681B69019308BD4C02030008B5024BDC
:104920001B685B69019308BD4C02030008B5024B8C
:104930001B689B69019308BD4C02030008B5024B3C
:104940001B68DB69019308BD4C02030008B5024BEC
:104950001B681B6A019308BD4C02030008B5024B9B
:104960001B689B6A019308BD4C02030008B5024B0B
:104970001B685B6B019308BD6002030008B5024B26
:104980001B681B6D019308BD6002030008B5024B54
:104990001B685B68019308BD2002030008B5024B49
:1049A0001B685B69019308BD2002030008B5034B37
:1049B0001B68D3F88830019308BD00002002030073
:1049C00008B5034B1B68D3F89430019308BD000071
:1049D0002002030008B5024B1B685B68019308BD09
:1049E0004002030008B5024B1B689B68019308BD99
:1049F0004002030008B5024B1B68DB68019308BD49
:104A00004002030008B5024B1B681B69019308BDF7
:104A10004002030008B5024B1B685B69019308BDA7
:104A20004002030008B5024B1B689B69019308BD57
:104A30004002030008B5024B1B68DB69019308BD07
:104A40004002030008B5024B1B681B6A019308BDB6
:104A50004002030008B5024B1B681B6B019308BDA5
:104A60004002030008B5024B1B685B6B019308BD55
:104A70004002030008B5024B1B681B6C019308BD84
:104A80004002030008B5024B1B685B6C019308BD34
:104A90004002030008B5024B1B689B68019308BDE8
:104AA0004402030008B5024B1B68DB6B019308BD91
:104AB0004402030008B5024B1B681B68019308BD44
:104AC0001C02030008B5024B1B685B68019308BD1C
:104AD0001C02030008B5024B1B68DB6B019308BD89
:104AE0001C02030008B5024B1B681B6C019308BD38
:104AF0001C02030008B5024B1B685B6C019308BDE8
:104B00001C020300002240681146FFF79BBF0022F1
:104B100040681146FFF7A6BF40680022FFF79ABF22
:104B20004068002281F00101FFF784BF0023406844
:104B30001A461946FFF776BF002340681A46194601
:104B4000FFF768BF002240681146FFF75BBF0022F5
:104B500040681146FFF746BF406800220221FFF778
:104B600049BF002340681A46FFF734BF024B0322B7
:104B70005A60024A1A607047B8E60320C0670B000B
:104B800010B5044608462170FFF7A0FE00236360BD
:104B9000204610BD054B02221A60054B054A9A605B
:104BA0000020C3E90000FFF7F1BE00BFCCE6032000
:104BB000C0E603200000FFFF10B54368013B044638
:104BC000436063B903689B689847A368013BA3608F
:104BD0002BB923682046DB68BDE81040184710BD9C
:104BE000024800230360FFF7A9BD00BFD0E6032001
:104BF000F8B506460D468F180024BD420CD0336828
:104C000015F8011B9B6830469847031E01DB1C44C6
:104C1000F3E7002C08BF1C462046F8BD13B5044638
:104C2000084659B1019101F0E7FC23680199DB685E
:104C30000246204602B0BDE81040184702B010BD41
:104C400003689B68184730B58BB00023012A8DF8A4
:104C5000243098BF0A2209AC0D46B1FBF2F101FBEA
:104C6000125303F0FF03092B94BF30333733DBB209
:104C7000AA4204F8013DEFD92146FFF7CFFF0BB060
:104C800030BD0000014B024A1A607047D4E6032091
:104C9000FC670B00024B1A68024B1A60704700BF9A
:104CA00004E50320D8E603200021FFF777BE0000CB
:104CB00010B5044B03600446806908B1FFF77CFF20
:104CC000204610BDF4680B0010B50446FFF7F0FF56
:104CD00020461C21FFF7E3F9204610BD014B0022BE
:104CE0009A607047DCE60320014B1860704700BFF4
:104CF00008E5032008B50B4B43B100F081F90368C8
:104D00001B699847002801DDAFF30080064B43B1D3
:104D100000F0B0FE03681B699847002801DDAFF37F
:104D2000008008BD000000000000000008B5FFF78B
:104D3000E1FFFFF7F3FC014B186008BD40E70320DB
:104D40000548064A064908B5121A01F0FFFB054B53
:104D5000054A1A6008BD00BF00F4032004F40320D4
:104D6000846B0B0000F403201E1C279A07B5002358
:104D700000931A466FF07701FFF722FE03B05DF84B
:104D800004FB000007B543880A2B08D0502B0BD139
:104D9000094B1B684BB103B05DF804EB1847FFF7F4
:104DA000E5FF03B05DF804FB002300931A466FF0A3
:104DB0007701FFF705FEF4E7F0E6032010B512488F
:104DC0000021FFF797FE114B1A68114B9A42114BC5
:104DD0000CBF012200221A7001D0FFF7B1FFFFF7CC
:104DE0008DFC044601F0C8FB0B4B13B12046AFF31A
:104DF000008000210848FFF755FEBDE81040074835
:104E00000021FFF7D3BD00BFE94C0B0000F40320E5
:104E10001E1C279AECE6032000000000854D0B00C5
:104E2000704710B518210446FFF739F9204610BD28
:104E3000F0B5037D062B8DB00E4600F104074FF050
:104E4000000412D000F1080515F8011D0A223046B1
:104E5000FFF7F9FEAF42044419D0002CF4D02E2104
:104E60003046FFF7EDFE0444EEE72F236A4639464D
:104E70000A208DF80040FFF769FC684601F0BCFB92
:104E800033680246DB686946304698470446204648
:104E90000DB0F0BD10B5054B0446112240F8043B9F
:104EA000002101F061FB204610BD00BF24680B000B
:104EB0000346074A10B543F8042B01F1100251F8DC
:104EC000044B43F8044B9142F9D10A781A7010BD93
:104ED00024680B00037D042B04D14068003818BF00
:104EE00001207047062B07D143683BB983682BB973
:104EF000C3681BB90069F1E70020704701207047C3
:104F000010B59DF8084044EA032343EA024242EA0E
:104F1000016104234160037510BD000007B5064B15
:104F20000360CB7800938B784A780978FFF7E8FF25
:104F300003B05DF804FB00BF24680B0041747047A8
:104F40007047704708B50021007CFFF7EFFC40EA8E
:104F5000E07008BD08B50121007CFFF7E7FC40EADE
:104F6000E07008BD08B5007CFFF7D8FC20EAE070CF
:104F700008BD08B5007CFFF7C9FC20EAE07008BD59
:104F800013B50446007C0191FFF7C8FC0028019985
:104F900001DC607C20B1207CFFF7D0FC20EAE070CF
:104FA00002B010BD007CFFF7D1BC10B5142104463F
:104FB000FFF775F8204610BD10B54FF47A7304461C
:104FC00008460021C4E90113044B23600123207427
:104FD00063741146FFF78AFC204610BD38680B0049
:104FE000007C0022FFF78ABC007CFFF7B7BC10B53D
:104FF00014220446002101F0B7FA204610BD00003B
:1050000010B50F4C88B003A8FFF7F1FF2178BFF36C
:105010005B8F11F001010FD120460191FFF74EF88F
:10502000019948B103AA0748FFF7C6FF2046FFF7DA
:105030004AF8054801F084FA024808B010BD00BFE4
:10504000F4E60320F8E60320414F0B00704741745B
:10505000704708B5007CFFF7C1FB20EAE07008BD8F
:1050600008B5007CFFF792FB20EAE07008BD08B5A8
:10507000007CFFF79BFB40EAE07008BD08B5007CB0
:10508000FFF78CFB40EAE07008BD007CFFF796BBA1
:1050900037B5457C04462DB1207C03B0BDE83040D7
:1050A000FFF76CBB007C0191FFF798FB002801998A
:1050B000F2DC284603B030BD10B514210446FEF7DB
:1050C000EEFF204610BD000010B54FF47A73044681
:1050D000084611460022C4E90123044B2360012342
:1050E00020746374FFF782FB204610BD68680B00D4
:1050F0007047F8B5064615460C468F18BC4206D0D8
:10510000336814F8011B9B6830469847F6E7284639
:10511000F8BD007C0022FFF771BB007C0021FFF787
:1051200075BB007C0021FFF779BB007C0021FFF7F5
:105130007DBB007C0021FFF781BB10B51421044624
:10514000FEF7ADFF204610BD38B5044615464FF4B6
:105150007A730022C4E90123094B217408462360B5
:105160002946FFF77BFBBF3008D16B69DB0705D50C
:105170006868FFF7A7FCE868FFF7A4FC204638BD85
:1051800098680B0013B503688DF80710DC6B0122DB
:105190004FF0FF330DF10701A04702B010BD10B46E
:1051A0000368DC6B4FF0FF33A4465DF8044B6047A7
:1051B00013B5134602688DF80710D46B0DF1070183
:1051C0000122A04702B010BD10B54369B3F8862094
:1051D000B3F884309A42044608D06369B3F8842057
:1051E000511CA3F884101344187910BD03681B697F
:1051F00098470028F1D14FF0FF30F6E77047436938
:105200001868C043C00F704770470000064B9942B2
:1052100010B500F10C0405D0084600F091FC002800
:1052200008BF0024204610BDF4670B0010B5AC2168
:105230000446FEF734FF204610BDAC21FEF72FBF19
:105240002DE9F0414FF0000886B01C46C0F80480FC
:1052500005460E4617464146102202A801F084F981
:10526000631C09D04FF47A73B4FBF3F203FB1244CE
:10527000CDE902285C430494686910230093006818
:1052800002AB41F2050240F6FF71FFF7EFFA00288A
:1052900007DAFFF71FFC03686B60002006B0BDE86B
:1052A000F0816869002300683A463146FFF7FEFA4C
:1052B000031EEEDB1846F1E730B587B0044601ADBA
:1052C0006846FFF72BFE0FCD04340FC42B68237004
:1052D00007B030BD70B54D69054B04468C3544F8B8
:1052E000043B06460FCD0FC42B682370304670BDBB
:1052F00024680B002DE9F0439846036893B00D46EF
:105300000024DB6A06461746984728466B46224625
:1053100021460094FFF7AAF90546002863D1009BB7
:10532000002B4BD05B69002B48D006A8FFF7B2FDDD
:10533000009B5C696378022B04D1211D06A8FFF74E
:10534000BBFF26E00A2B24D11122294601A801F037
:105350000BF9A368002B38D004F108030DF1040CFD
:10536000183418685968624603C20833A342944649
:10537000F7D1062301A90CA88DF81430FFF798FD8A
:105380000DF1340CBCE80F0007AC0FC4DCF80030A2
:10539000237006A8FFF79EFD80B1336807ADD3F8F0
:1053A0002090124B0C930FCD0DAC0FC42B682370C3
:1053B0003A4643460CA93046C84705460098FFF7D1
:1053C0004DF9284613B0BDE8F083E368002BC3D144
:1053D0004FF6FF70D4F81090FFF7C0F98145BBD1AC
:1053E00004F11401AAE72546E8E700BF24680B0092
:1053F00038B543691A68002A054610DAB3F88620E2
:10540000B3F884309A420AD103681B69984704466E
:1054100028B92B682846DB6A9847204638BD01200A
:10542000FCE710B54369B3F88620B3F884309A429C
:10543000044605D06369B3F884201344187910BD7D
:1054400003681B6998470028F4D14FF0FF30F6E756
:10545000F8B543691746B3F88620B3F884309A420A
:1054600005460E4616D06969B1F88430B1F8864019
:10547000E41ABC4228BF3C46043322461944304655
:1054800001F064F86A69B2F884302344A2F88430E9
:105490002046F8BD03681B6998470028E3D14FF008
:1054A000FF34F5E742690023A2F884304269A2F88C
:1054B000863070472DE9F0411F4603680C46DB6AD1
:1054C0008AB0054616469847237DD5F81480042BEC
:1054D0000CBF02200A2006220121FFF7EFF9C8F8CD
:1054E00000006B691B68002B08DA2B682846DB6A12
:1054F0000024984720460AB0BDE8F0812846FFF70F
:10550000D1FFB7B1002303A9F8B20393ADF810306F
:10551000FFF7ECF80028E8D16869062300930068DB
:1055200003AB41F20B0240F6FF71FFF79FF9002831
:10553000DBD11C22002103A801F016F8237D042BE7
:105540001DD14FF407733046ADF80C30FFF70EF95C
:10555000ADF80E006068FFF701F904906B691C223A
:10556000186803A9FFF792F90028BED104340FCCC4
:105570006D698C350FC523682B700124BAE740F69E
:105580001C233046ADF80C30FFF7F0F805AEADF84F
:105590000E00231D04F1140718685968324603C22F
:1055A0000833BB421646F7D1D8E7000030B5426950
:1055B000B2F886308BB004462BB1B2F884209A4200
:1055C00001D1FFF76FFF61690868002818DBB1F8A7
:1055D00086507F2D14D804310823C5F18002294458
:1055E000FFF75CF9002813DD6369B3F886200AB978
:1055F000A3F884206369B3F886201044A3F88600DA
:105600006369B3F88600B3F88430C01A0BB030BDBC
:10561000FFF760FA03680B2BF2D0FFF75BFA036821
:105620000B2BEDD020230025CDE90235FFF752FAF0
:1056300003680193084B0949009302AA2B463220C4
:10564000FFF79CF963691868FFF718F963694FF071
:10565000FF321A60D4E700BFBF680B00B8680B00C8
:1056600010B5436904461868002801DBFFF706F906
:1056700063694FF0FF321A606069112200218C309B
:1056800000F072FF2046BDE81040FFF70BBF10B5D9
:10569000002304460160C0F884308830FFF7FAFB2D
:1056A000204610BD73B500234FF47A72C0E9013271
:1056B0000E4A0361026043610446AC200191FEF78B
:1056C000EAFC051E05F10C0608D00123C5E90133EB
:1056D000074B01992B603046FFF7D9FF2046C4E9FC
:1056E0000565FFF7DFFE02B070BD00BFF4680B0078
:1056F000D8680B0010B54FF0FF310446FFF7D2FF1A
:10570000204610BD10B504460068002801DBFFF7F5
:10571000B5F8204610BD0C30FFF7F4BF00224068FA
:105720001146FFF76FB9002240681146FFF78AB9AA
:10573000002240681146FFF795B940680022FFF744
:1057400089B94068002281F00101FFF773B9002395
:1057500040681A461946FFF765B9002340681A46A3
:105760001946FFF757B9002240681146FFF73AB9CA
:10577000406800220221FFF73DB9002340681A4625
:10578000FFF728B9024B04225A60024A1A60704798
:105790000CE7032040690B00002340681A46FFF71E
:1057A00019B9406800220221FFF724B9002240689D
:1057B0001146FFF717B9002240681146FFF722B9DA
:1057C000002340681A461946FFF724B900234068B1
:1057D0001A461946FFF726B940680021FFF74AB973
:1057E00040680021FFF74EB94068002281F00101B6
:1057F000FFF720B940680022FFF72CB9002240686B
:105800001146FFF72FB9002240681146FFF71AB979
:105810002DE9F04395B014460D460746FFF73AFBD5
:1058200000211C220DA8009100F09EFE40230C9345
:1058300020466B460CAA0021FEF718FF04460028FC
:105840004BD1024601216868FFF7DCF8022180464F
:1058500022466868FFF7D6F8009E81462146002E52
:105860003BD0002939D17368022B03D00A2B11D009
:10587000F669F4E7B8F1000FFAD0716906A80431AF
:1058800007ADFFF74BFB0FCD3C1D0FC42B682370FA
:105890004146EDE7B9F1000FEAD07469102201A882
:1058A00000F062FE06238DF8143001AD04F1080308
:1058B0001834186859682A4603C20833A3421546AB
:1058C000F7D101A906A807ADFFF7F2FA0FCD3C1DED
:1058D0000FC42B6823704946CAE70098FEF7BEFE46
:1058E000384615B0BDE8F083024B034A1A60002227
:1058F0005A60704714E703207C690B00232813B516
:1059000002D9002002B010BDA0F10B03022B1AD85F
:10591000174C2178BFF35B8F11F001010BD12046AA
:105920000191FEF7CBFB019928B11248FFF728F946
:105930002046FEF7C8FB0F4B1878FEF7CFFF002874
:10594000DFD10120DEE7012809D800F0D3F80021DB
:10595000007CFEF77BFF80F00100C0B2D2E709387F
:105960000128EED800F086F8007CFEF72FFFF2E762
:105970001CE7032020E70320232838B504460D4602
:105980000AD8FF2908D0FFF7B9FF28B129462046D9
:10599000BDE83840FEF77ABE38BD38B504460D463E
:1059A000FEF77CFEFF2810D0062804D84D2323FAEA
:1059B00000F0C30709D42046FFF7A0FF28B129460D
:1059C0002046BDE83840FEF771BE38BD10B504462C
:1059D000FEF764FE031FDBB2012B08D92046FFF758
:1059E0008DFF20B12046BDE81040FEF767BE0020C5
:1059F00010BD38B504460D46FFF780FFF0B1042115
:105A00002046FEF73BFE042805D1A9B22046BDE89A
:105A10003840FEF75BBE02212046FEF72FFE02282B
:105A20000CD12046FEF73AFE012801D0042805D10A
:105A300029462046BDE83840FEF750BE38BD7047C5
:105A400038B5044614252A46002100F08DFD258036
:105A50004025074925812846258200F06FF8044932
:105A60006060284600F06AF8E060204638BD00BF5C
:105A7000B0690B0030B50E4D2978BFF35B8F11F084
:105A8000010487B011D12846FEF718FB68B101A8C0
:105A9000FFF7D6FF01AA21460648FFF715FB284667
:105AA000FEF711FB044800F04BFD024807B030BD83
:105AB00028E703202CE703203F5A0B007047000023
:105AC00038B50A4B0360012304464361084920208E
:105AD00000F034F8202560600549A560284600F0F4
:105AE0002DF8C4E90305204638BD00BF18000100A9
:105AF000B0690B0030B50E4D2978BFF35B8F11F004
:105B0000010487B011D12846FEF7D8FA68B168467B
:105B1000FFF7D6FF6A4621460648FFF715FB2846E1
:105B2000FEF7D1FA044800F00BFD024807B030BD83
:105B300044E7032048E70320BD5A0B00FEF7ADBA47
:105B4000014900F0F9B800BFCC690B007FB5002413
:105B50001023CDE90234036815469E6912686B462E
:105B6000CDE90044B0479DF8043003F00603062B4E
:105B700003BF009B2B600120204604B070BD00983D
:105B8000904214BF012006207047000010B5034B5F
:105B90000360044600F0CDF8204610BD0C6A0B00EF
:105BA00010B50446FFF7F2FF20460821FEF777FA0A
:105BB000204610BD2DE9F0411F46DDE90834DDF82F
:105BC000188098450646154607D1079900F0B4F8A5
:105BD00018B165710020BDE8F0813946304600F00B
:105BE000ABF80028F6D00123C4F800802571A3711A
:105BF000F0E738B515461C4600F09EF820B10823A2
:105C0000E36006232560237138BD73B505460C4655
:105C100001921E4600F090F850B9032E08D8236870
:105C2000019A5B692946204602B0BDE870401847DA
:105C300002B070BD10B5034B03600446FFF7A6FF2A
:105C4000204610BD6C6A0B0010B50446FFF7F2FF4A
:105C500020460C21FEF723FA204610BDF7B5089F19
:105C6000974205460E4614460AD0A868026808976F
:105C7000156A31462246AC4603B0BDE8F0406047A5
:105C80001946019300F058F8019B0028EDD006203A
:105C900003B0F0BD2DE9F14F0D461946DDE90A4B81
:105CA000DDE90CA681461746984600F045F890B10C
:105CB000002D3460377109DB61198A450CBF06215C
:105CC0000121B171002001B0BDE8F08F0235F9D19A
:105CD0000123B371F6E7544506D15946484600F012
:105CE0002BF808B17771EDE7D9F808000368CDE922
:105CF0000CA6CDE90A4BDC693A4643462946A44640
:105D000001B0BDE8F04F60472DE9F04107460C4671
:105D100015461E46FFF76DFF48B9B86803689F69CE
:105D20002A4633462146BC46BDE8F0416047BDE8FF
:105D3000F081704700207047814208B50ED040685E
:105D400003782A2B0CD049680B782A2B08BF013125
:105D500000F040FCB0FA80F0400908BD0120FCE7EB
:105D60000020FAE781F0004102E000BF83F0004329
:105D700030B54FEA41044FEA430594EA050F08BFE6
:105D800090EA020F1FBF54EA000C55EA020C7FEAAA
:105D9000645C7FEA655C00F0E2804FEA5454D4EB27
:105DA0005555B8BF6D420CDD2C4480EA020281EAF1
:105DB000030382EA000083EA010180EA020281EA29
:105DC0000303362D88BF30BD11F0004F4FEA01317B
:105DD0004FF4801C4CEA113102D0404261EB41018A
:105DE00013F0004F4FEA03334CEA133302D0524210
:105DF00063EB430394EA050F00F0A780A4F10104CC
:105E0000D5F1200E0DDB02FA0EFC22FA05F2801805
:105E100041F1000103FA0EF2801843FA05F35941EB
:105E20000EE0A5F120050EF1200E012A03FA0EFC6A
:105E300028BF4CF0020C43FA05F3C01851EBE37194
:105E400001F0004507D54FF0000EDCF1000C7EEBB1
:105E500000006EEB0101B1F5801F1BD3B1F5001FEF
:105E60000CD349085FEA30004FEA3C0C04F101040E
:105E70004FEA445212F5800F80F09A80BCF1004F37
:105E800008BF5FEA500C50F1000041EB045141EAB9
:105E9000050130BD5FEA4C0C404141EB0101013C82
:105EA00028BFB1F5801FE9D291F0000F04BF014671
:105EB0000020B1FA81F308BF2033A3F10B03B3F143
:105EC00020020CDA0C3208DD02F1140CC2F10C02D3
:105ED00001FA0CF021FA02F10CE002F11402D8BF31
:105EE000C2F1200C01FA02F120FA0CFCDCBF41EAFD
:105EF0000C019040E41AA2BF01EB0451294330BDCC
:105F00006FEA04041F3C1CDA0C340EDC04F11404A8
:105F1000C4F1200220FA04F001FA02F340EA03007F
:105F200021FA04F345EA030130BDC4F10C04C4F1C5
:105F3000200220FA02F001FA04F340EA03002946A5
:105F400030BD21FA04F0294630BD94F0000F83F4EF
:105F5000801306BF81F480110134013D4EE77FEAD2
:105F6000645C18BF7FEA655C29D094EA050F08BF1E
:105F700090EA020F05D054EA000C04BF19461046FF
:105F800030BD91EA030F1EBF0021002030BD5FEA43
:105F9000545C05D14000494128BF41F0004130BD6B
:105FA00014F580043CBF01F5801130BD01F00045BF
:105FB00045F0FE4141F470014FF0000030BD7FEA32
:105FC000645C1ABF194610467FEA655C1CBF0B462D
:105FD000024650EA013406BF52EA033591EA030F44
:105FE00041F4002130BD00BF90F0000F04BF00213C
:105FF000704730B54FF4806404F132044FF000056F
:106000004FF0000150E700BF90F0000F04BF0021E7
:10601000704730B54FF4806404F1320410F000454D
:1060200048BF40424FF000013EE700BF42004FEA48
:10603000E2014FEA31014FEA02701FBF12F07F43C5
:1060400093F07F4F81F06051704732F07F4208BF7C
:10605000704793F07F4F04BF41F40021704730B583
:106060004FF4607401F0004521F000411CE700BFCF
:1060700050EA010208BF704730B54FF000050AE052
:1060800050EA010208BF704730B511F0004502D553
:10609000404261EB41014FF4806404F132045FEA55
:1060A000915C3FF4D8AE4FF003025FEADC0C18BFFE
:1060B00003325FEADC0C18BF033202EBDC02C2F1F0
:1060C000200300FA03FC20FA02F001FA03FE40EA82
:1060D0000E0021FA02F11444BDE600BF70B54FF086
:1060E000FF0C4CF4E06C1CEA11541DBF1CEA135564
:1060F00094EA0C0F95EA0C0F00F0DEF82C4481EACC
:10610000030621EA4C5123EA4C5350EA013518BFEB
:1061100052EA033541F4801143F4801338D0A0FBD8
:1061200002CE4FF00005E1FB02E506F00042E0FB85
:1061300003E54FF00006E1FB03569CF0000F18BF8B
:106140004EF0010EA4F1FF04B6F5007F64F5407433
:1061500004D25FEA4E0E6D4146EB060642EAC621C6
:1061600041EA55514FEAC52040EA5E504FEACE2E33
:10617000B4F1FD0C88BFBCF5E06F1ED8BEF1004F36
:1061800008BF5FEA500E50F1000041EB045170BDB2
:1061900006F0004646EA010140EA020081EA0301F6
:1061A000B4EB5C04C2BFD4EB0C0541EA045170BDF2
:1061B00041F480114FF0000E013C00F3AB8014F16C
:1061C000360FDEBF002001F0004170BDC4F10004B5
:1061D000203C35DA0C341BDC04F11404C4F1200536
:1061E00000FA05F320FA04F001FA05F240EA020091
:1061F00001F0004221F0004110EBD37021FA04F6C7
:1062000042EB06015EEA430E08BF20EAD37070BD80
:10621000C4F10C04C4F1200500FA04F320FA05F0DF
:1062200001FA04F240EA020001F0004110EBD370E1
:1062300041F100015EEA430E08BF20EAD37070BD51
:10624000C4F1200500FA05F24EEA020E20FA04F32A
:1062500001FA05F243EA020321FA04F001F00041D9
:1062600021FA04F220EA020000EBD3705EEA430E4A
:1062700008BF20EAD37070BD94F0000F0FD101F079
:106280000046400041EB010111F4801F08BF013CB2
:10629000F7D041EA060195F0000F18BF704703F0F0
:1062A0000046520043EB030313F4801F08BF013D77
:1062B000F7D043EA0603704794EA0C0F0CEA135533
:1062C00018BF95EA0C0F0CD050EA410618BF52EAED
:1062D0004306D1D181EA030101F000414FF00000F3
:1062E00070BD50EA410606BF1046194652EA430601
:1062F00019D094EA0C0F02D150EA013613D195EA75
:106300000C0F05D152EA03361CBF104619460AD1BC
:1063100081EA030101F0004141F0FE4141F47001C6
:106320004FF0000070BD41F0FE4141F4780170BDB6
:1063300070B54FF0FF0C4CF4E06C1CEA11541DBF1B
:106340001CEA135594EA0C0F95EA0C0F00F0A7F81D
:10635000A4EB050481EA030E52EA03354FEA01314A
:1063600000F088804FEA03334FF0805545EA13135D
:1063700043EA12634FEA022245EA111545EA106525
:106380004FEA00260EF000419D4208BF964244F1BC
:10639000FD0404F5407402D25B084FEA3202B61ADB
:1063A00065EB03055B084FEA32024FF480104FF4AF
:1063B000002CB6EB020E75EB030E22BFB61A754623
:1063C00040EA0C005B084FEA3202B6EB020E75EBB6
:1063D000030E22BFB61A754640EA5C005B084FEA1E
:1063E0003202B6EB020E75EB030E22BFB61A7546EB
:1063F00040EA9C005B084FEA3202B6EB020E75EBF6
:10640000030E22BFB61A754640EADC0055EA060EB6
:1064100018D04FEA051545EA16754FEA06164FEAF9
:10642000C30343EA52734FEAC2025FEA1C1CC0D1A5
:1064300011F4801F0BD141EA00014FF000004FF032
:10644000004CB6E711F4801F04BF01430020B4F1F3
:10645000FD0C88BFBCF5E06F3FF6AFAEB5EB030CAB
:1064600004BFB6EB020C5FEA500C50F1000041EBA8
:10647000045170BD0EF0004E4EEA113114EB5C0475
:10648000C2BFD4EB0C0541EA045170BD41F4801148
:106490004FF0000E013C90E645EA060E8DE60CEA50
:1064A000135594EA0C0F08BF95EA0C0F3FF43BAF6D
:1064B00094EA0C0F0AD150EA01347FF434AF95EA24
:1064C0000C0F7FF425AF104619462CE795EA0C0F08
:1064D00006D152EA03353FF4FDAE1046194622E7D5
:1064E00050EA410618BF52EA43067FF4C5AE50EAAF
:1064F00041047FF40DAF52EA43057FF4EBAE12E79F
:106500004A0011D212F5001211D20DD56FF4787332
:10651000B3EB62520ED44FEAC12343F0004343EA87
:10652000505323FA02F070474FF00000704750EAD2
:10653000013002D14FF0FF3070474FF0000070473C
:10654000002301461A46184600F05EB80A449142FC
:1065500000F1FF3300D1704710B511F8014B03F87B
:10656000014F9142F9D110BD02440346934200D13C
:10657000704703F8011BF9E738B5104B1D68AB6B8A
:106580000446B3B91820FEF795FA0246A86320B96D
:106590000B4B0C484221FEF7A5FA0B490B4BC0E907
:1065A00000130B4B83600B23838100210120C2E980
:1065B0000401AB6B00221C615A6138BD08E5032061
:1065C000A56A0B00BC6A0B000E33CDAB34126DE62E
:1065D000ECDE050010F8012B11F8013B012A28BF61
:1065E0009A42F7D0D01A7047034611F8012B03F8EE
:1065F000012B002AF9D17047034613F8012B002A1A
:10660000FBD1181A013870472DE9F843DFF8B8803C
:106610000646D8F800001F460D46914600F056F891
:10662000254B1C6834B9254C1C60254B13B11B68E5
:10663000C4F8883063681F2B07DDD8F8000000F02D
:1066400047F84FF0FF30BDE8F8834EB3D4F8880028
:1066500088B91C4B23B9D8F8000000F038F8F0E7EF
:106660004FF48470FEF726FA0028F4D00023C0E926
:106670004033C4F88800636840F8239001229A40B0
:1066800000EB8301D0F800311343C0F80031022E33
:10669000C1F8807002BFD0F804311343C0F8043150
:1066A0006368D8F800005A1C0233626044F8235033
:1066B00000F00EF80020C6E7E8E703205CE70320BF
:1066C00000000000B54A0B006CE5032070477047DE
:1066D0007047000021400B005D400B0085400B001F
:1066E00089400B000000000043616C6C206F6E203D
:1066F00070757265207669727475616C004D725F99
:10670000436164656E00696F2E61646166727569CC
:10671000742E636F6D0061696F5F4A556641323355
:10672000694F30446A387A616F77474765474763F6
:10673000445134413154004D725F436164656E2FA2
:1067400066656564732F696D616765000000000010
:10675000010000000200000003000000040000002F
:10676000050000000600000007000000080000000F
:10677000000000000000000051450B00DD450B004B
:10678000FD440B00AB450B00EB450B0011450B0026
:1067900053450B0000000000000000000000000056
:1067A00000000000A5400B00A5400B00A5400B0019
:1067B000A5400B00A5400B000000000000000000F9
:1067C000634B0B00594B0B004F4B0B00454B0B0021
:1067D000394B0B002D4B0B00D9570B00E1570B0029
:1067E000214B0B00194B0B000F4B0B00054B0B0003
:1067F00011580B00000000000000000061707000E4
:1068000025592D256D2D25645425483A254D3A25C9
:1068100053257A0061736374696D650000000000A0
:1068200000000000314E0B00214E0B00234E0B00E8
:106830000000000000000000434F0B00AB4F0B00B6
:10684000814F0B00F14B0B00734F0B00454F0B00BA
:10685000554F0B00A54F0B00654F0B003D4F0B0034
:1068600000000000000000004D500B00B9500B006C
:1068700091500B00F14B0B0061500B007D500B0051
:106880006F500B008B500B004F500B0053500B0000
:106890000000000000000000F1500B003B510B0015
:1068A00013510B00F3500B001B510B0023510B0035
:1068B0002B510B0033510B00776972696E670072C0
:1068C000656376206572726F72203D20256400003A
:1068D000000000000000000009520B002D520B00C8
:1068E00017570B003B520B000D520B00000000002D
:1068F00000000000B14C0B00C94C0B0085510B008F
:106900009F510B00AD550B00C9510B0023540B00D8
:10691000FD510B00B5540B00F5520B0051540B0008
:1069200061560B00F1530B00FF510B00B1510B00EE
:1069300041520B00D5520B00000000000000000087
:106940007B570B0071570B0067570B001D570B004F
:106950005B570B004F570B00D9570B00E1570B004B
:1069600043570B003B570B0031570B0027570B00C9
:1069700011580B00000000000000000099570B00A8
:10698000A3570B00AD570B00B7570B00C1570B00B7
:10699000CD570B00D9570B00E1570B00E9570B00FF
:1069A000F5570B00FD570B0007580B0011580B0053
:1069B00000537431395F53705F6D616B655F73684D
:1069C000617265645F746167000000000C6A0B000F
:1069D000B1690B006C6A0B00E0690B00906A0B0058
:1069E0004E31305F5F637878616269763131375F4D
:1069F0005F636C6173735F747970655F696E666FF6
:106A00004500000000000000D4690B008D5B0B0006
:106A1000A15B0B00355D0B00355D0B000B5C0B00C3
:106A20004D5B0B00F35B0B00B55B0B007F5B0B005A
:106A30006C6A0B003C6A0B00D4690B004E31305F6E
:106A40005F637878616269763132305F5F73695F66
:106A5000636C6173735F747970655F696E666F45AF
:106A60000000000000000000306A0B00355C0B00E5
:106A7000495C0B00355D0B00355D0B000B5C0B00BA
:106A80004D5B0B00095D0B00955C0B005D5C0B0022
:106A90000C6A0B00986A0B00537439747970655F47
:106AA000696E666F005245454E54206D616C6C6F87
:106AB0006320737563636565646564002F6D6E7430
:106AC0002F776F726B73706163652F776F726B7363
:106AD000706163652F4743432D31302D70697065B8
:106AE0006C696E652F6A656E6B696E732D474343E3
:106AF0002D31302D706970656C696E652D34385F8D
:106B000032303230313132345F3136303631383034
:106B10003634312F7372632F6E65776C69622F6E16
:106B200065776C69622F6C6962632F7374646C693A
:106B3000622F72616E642E63000000008D440B00B2
:106B40006D4B0B00954B0B00E14B0B00854C0B0084
:106B5000954C0B00DD4C0B0085570B00E9580B00E2
:106B6000040000001400000003000000474E550020
:106B700033C11839881BA55ED00014981165DD0E4D
:046B80004E91565587
:046B8400000000000D
:106B88000000204114680B000CE503200000000001
:106B980000000000000000000000000000000000ED
:106BA80000000000000000000000000000000000DD
:106BB80000000000000000000000000000000000CD
:106BC80000000000000000000000000000000000BD
:106BD80000000000000000000000000000000000AD
:106BE800000000000000000000000000ECE70320A7
:106BF800FFFFFFFF00000102030405060708090A5A
:106C08000B0C0D0E0F101112131415161718191A54
:086C18001B1C1D1E1F2028009B
:046C2000785634125C
:04000003B0004020E9
:00000001FF
