:02000002B0004C
:1040000000400B0084610B00000006000C0005025C
:084010000401A60F00000000EE
:04401800385E0B0003
:1040200009480A49884208B505D0094A824202D0A7
:10403000121A01F047FE0748074A0021121A01F040
:104040004FFE014808BD00BF0CE60320E8600B00EE
:1040500080E6032080E60320EDE7032070B5074EDD
:10406000074C00F05BFEA41BA4080025AC4200D165
:1040700070BD56F8043B98470135F7E79C600B008C
:10408000C0600B0000F050B808B500F0B1F9BDE811
:10409000084000F0FBBD00F0F5BB00F0FBBB007872
:1040A000B0FA80F0400970470123037070470EB4E6
:1040B00003B503AB002153F8042B019300F04DFD31
:1040C00002B05DF804EB03B070470EB400B58CB0DD
:1040D0000DAA4FF0200C52F8041B0392CDE90012F8
:1040E0000023016804AA1E20CDE904C300F036FBBA
:1040F0000CB05DF804EB03B07047000070B50B46E0
:1041000005460C4606480749FFF7DFFF00F012FF9F
:10411000036822462946DB68BDE87040184700BFA7
:10412000D4E603204C5E0B0038B500F003FF4FF4DB
:10413000165100F0EFFE002000F030FA42F2107548
:104140000446002000F02AFA001B61F10001A84299
:1041500071F1000307D200F0EDFE00F0DFFE10B9B0
:1041600000F080FBEDE700F0E5FE00F0D7FE012156
:104170000E2001F0CFF801210F2001F0CBF8012132
:10418000102001F0C7F80021112001F0C3F801212F
:10419000072001F0BFF8044B044A1A6000F0F6F95A
:1041A000034B186038BD00BF10E60320FD400B0034
:1041B00098E60320000000002DE9F74315468FB272
:1041C0001C46064600213846ADB210EE108AA4B255
:1041D00001F0DDF80021284601F0D9F80021204641
:1041E00001F0D5F876B93146384601F0D0F8002113
:1041F000284601F0CCF80021204601F0C8F803B0B1
:10420000BDE8F083012E24D0022E36D1404601F0C5
:10421000C9FA02460B460020714901F063F9804655
:10422000894602460B4668A1D1E9000101F03CFC39
:1042300001F022FD0146384601F0A9F842464B46FE
:1042400063A1D1E9000101F02FFC01F015FD014649
:10425000CEE7404601F0A6FA02460B460020604930
:1042600001F040F902460B4659A1D1E9000101F0E5
:104270001BFC01F001FD0146B6E7032E25D0042EFC
:1042800033D0052E52D0062E6DD0072E00F0878039
:10429000082EB4D1404601F085FA02460B460020B4
:1042A0004F4901F01FF902460B46804689464AA154
:1042B000D1E9000101F0F8FB01F0DEFC01463846CF
:1042C00001F065F842464B463FE0404601F06AFA8D
:1042D00002460B460020424901F004F98046894617
:1042E00002460B4600203F49A0E70021384601F076
:1042F0004EF8404601F056FA02460B460020384977
:1043000001F0F0F802460B4631A1D1E9000101F0BD
:10431000CBFB01F0B1FC0146284601F038F8002142
:10432000204603B0BDE8F04301F031B80021384623
:1043300001F02DF8404601F035FA02460B46002008
:10434000274901F0CFF802460B4621A1D1E900012F
:1043500001F0AAFB01F090FC01460190284601F013
:1043600016F80199DCE70021384601F010F8002129
:10437000284601F00CF8404601F014FA02460B46BC
:104380000020174901F0AEF802460B4610A1D1E912
:10439000000101F089FB01F06FFC0146C0E707EE68
:1043A000108ADFED117A77EEC77A17EE900A01F0E6
:1043B000F9F902460B4600200C4901F075FB01F0AB
:1043C0005BFC0146D0E700BF0000000000606D40CC
:1043D0000000000000E06F4000000000002062408C
:1043E00000405940000069400000CA4200002E40D1
:1043F00030B5112085B000F0B7FF254C254B0038B3
:1044000018BF012018702378834218BF20702378CA
:104410002BBB0021072000F08EFF1F4C00F0B6F8E8
:104420002368C01A41F28833984216D900F0AEF8DA
:1044300020601A4C1A4D206895ED000A194D013084
:104440002060102355F820000F220E21FFF7B4FE44
:104450002368082BC4BF0023236005B030BD0121B1
:10446000072000F068FF00F0D3FF392201466846BC
:1044700000F0BAFB00F05EFD009A0B49FFF717FE53
:10448000684600F089FA2378002BC6D1C1E700BF47
:1044900094E603208CE6032098E6032090E60320B0
:1044A0000CE60320705E0B006B5E0B0008B500F09D
:1044B000AFFF0C4B13214FF4FA72C3E90112002233
:1044C00040211860C3E903211A759861064BC3E9BE
:1044D0000022A2F580329A60BDE80840022000F078
:1044E00045B900BF9CE6032080E6032008B5024BD7
:1044F0001B689B68019308BD6802030008B5024B66
:104500001B68DB68019308BD6802030008B5024B15
:104510001B685B68019308BD2C02030008B5024BC1
:104520001B689B68019308BD2C02030008B5024B71
:104530001B68DB68019308BD2C02030008B5024B21
:104540001B681B69019308BD2C02030008B5024BD0
:104550001B685B69019308BD2C02030008B5024B80
:104560001B689B6A019308BD2C02030008B5024B2F
:104570001B689B6F019308BD2C02030008B5024B1A
:104580001B685B68019308BD1802030008B5024B65
:104590001B685B69019308BD1802030008B5024B54
:1045A0001B68DB6D019308BD1802030008B5024BC0
:1045B0001B685B6C019308BD4802030008B5024B01
:1045C0001B685B69019308BD6402030008B5024BD8
:1045D0001B68DB68019308BD3C02030008B5024B71
:1045E0001B681B69019308BD3C02030008B5024B20
:1045F0001B685B69019308BD3C02030008B5024BD0
:104600001B689B69019308BD3C02030008B5024B7F
:104610001B68DB69019308BD3C02030008B5024B2F
:104620001B681B6A019308BD3C02030008B5024BDE
:104630001B689B6A019308BD3C02030008B5024B4E
:104640001B681B6C019308BD3C02030008B5024BBC
:104650001B681B6A019308BD2802030008B5024BC2
:104660001B685B6A019308BD2802030008B5024B72
:104670001B689B6A019308BD2802030008B5024B22
:104680001B68DB6A019308BD2802030008B5024BD2
:104690001B681B6B019308BD2802030008B5024B81
:1046A0001B685B6B019308BD2802030008B5024B31
:1046B0001B681B6C019308BD2802030008B5024B60
:1046C0001B68DB69019308BD3002030008B5024B8B
:1046D0001B681B6A019308BD3002030008B5024B3A
:1046E0001B681B68019308BD4C02030008B5024B10
:1046F0001B685B68019308BD4C02030008B5024BC0
:104700001B681B69019308BD4C02030008B5024BEE
:104710001B685B69019308BD4C02030008B5024B9E
:104720001B689B69019308BD4C02030008B5024B4E
:104730001B68DB69019308BD4C02030008B5024BFE
:104740001B681B6A019308BD4C02030008B5024BAD
:104750001B689B6A019308BD4C02030008B5024B1D
:104760001B685B6D019308BD6002030008B5024B36
:104770001B685B68019308BD2002030008B5034B6A
:104780001B68D3F88830019308BD000020020300A5
:1047900008B5034B1B68D3F89430019308BD0000A3
:1047A0002002030008B5024B1B685B68019308BD3B
:1047B0004002030008B5024B1B689B68019308BDCB
:1047C0004002030008B5024B1B68DB68019308BD7B
:1047D0004002030008B5024B1B681B69019308BD2A
:1047E0004002030008B5024B1B685B69019308BDDA
:1047F0004002030008B5024B1B689B69019308BD8A
:104800004002030008B5024B1B68DB69019308BD39
:104810004002030008B5024B1B681B6A019308BDE8
:104820004002030008B5024B1B681B6B019308BDD7
:104830004002030008B5024B1B685B6B019308BD87
:104840004002030008B5024B1B681B6C019308BDB6
:104850004002030008B5024B1B685B6C019308BD66
:104860004002030008B5024B1B689B68019308BD1A
:104870004402030008B5024B1B68DB6B019308BDC3
:104880004402030008B5024B1B681B68019308BD76
:104890001C02030008B5024B1B685B68019308BD4E
:1048A0001C02030008B5024B1B689B68019308BDFE
:1048B0001C02030008B5024B1B685B6A019308BD2C
:1048C0001C02030008B5024B1B681B6C019308BD5A
:1048D0001C02030008B5024B1B685B6C019308BD0A
:1048E0001C020300002240681146FFF793BF00221C
:1048F00040681146FFF79EBF40680022FFF792BF55
:104900004068002281F00101FFF77CBF002340686E
:104910001A461946FFF76EBF002340681A4619462B
:10492000FFF760BF002240681146FFF753BF002227
:1049300040681146FFF73EBF406800220221FFF7A2
:1049400041BF002340681A46FFF72CBF024B0322E9
:104950005A60024A1A607047B8E603209C5E0B005A
:1049600010B5044608462170FFF7A8FE00236360D7
:10497000204610BD054B02221A60054B054A9A607D
:104980000020C3E90000FFF7F1BE00BFCCE6032022
:10499000C0E603200000FFFF10B504460068FFF7E3
:1049A00079FF204610BD10B50446006808B1FFF736
:1049B00071FF0023C4E90133236010BD38B50446FC
:1049C0000D4600680131FFF76DFF10B1C4E9000525
:1049D000012038BD10B50368044623B143688B42FB
:1049E00001D3012010BD2046FFF7E8FF0028F9D0D1
:1049F000A368002BF5D122681370F2E737B50D4696
:104A0000114601920446FFF7E5FF019A28B92046B6
:104A1000FFF7C9FF204603B030BDA26029462068D9
:104A200001F050F92268A3680021D154F2E7002375
:104A300013B5C0E9003304468360037341B10846EF
:104A4000019101F08BF9019902462046FFF7D6FF4C
:104A5000204602B010BD70B505460E4609B90020CB
:104A600070BD6AB1846814442146FFF7B3FF002883
:104A7000F5D02868AB683146184401F067F9AC609E
:104A80000120EDE707B500238DF80410012201A9EC
:104A90008DF80530FFF7DFFF03B05DF804FB000081
:104AA000024800230360FFF781BD00BFD0E603206A
:104AB000F8B506460D468F180024BD420CD0336869
:104AC00015F8011B9B6830469847031E01DB1C4408
:104AD000F3E7002C08BF1C462046F8BD13B504467A
:104AE000084659B1019101F039F923680199DB6851
:104AF0000246204602B0BDE81040184702B010BD83
:104B000003689B68184738B50D210546FFF7F8FF85
:104B10000A2104462846FFF7F3FF204438BD30B58C
:104B20008BB00023012A8DF8243098BF0A2209ACEB
:104B30000D46B1FBF2F101FB125303F0FF03092B09
:104B400094BF30333733DBB2AA4204F8013DEFD9CA
:104B50002146FFF7C3FF0BB030BD2DE9F04186B011
:104B600000AF05460E46381D142114463B60FFF782
:104B7000A1FE13280ED8391D2846FFF7AFFF0446C3
:104B80001EB12846FFF7BFFF044420461837BD4634
:104B9000BDE8F08100F1080323F00703E846ADEB20
:104BA000030D2246411C3B686846FFF783FE6946B9
:104BB0002846FFF793FF0446C546E1E710B50446D3
:104BC000FFF7E4FCE060236820465B699847002813
:104BD00008DAFFF7DBFCE368C01AA3689842F2D357
:104BE0004FF0FF3010BD000070B50D460949044676
:104BF0001646FFF71CFF2846FFF7E0FF002806DBFC
:104C0000864204D0C1B22046FFF73CFFF3E72046BE
:104C100070BD00BF98600B00014B024A1A607047DC
:104C2000D4E60320D05E0B00024B1A68024B1A60D8
:104C3000704700BF14E60320D8E60320014B002292
:104C40009A607047DCE60320014B1860704700BF94
:104C500018E6032008B50B4B43B100F06BF903686D
:104C60001B699847002801DDAFF30080064B43B174
:104C700000F0CEFB03681B699847002801DDAFF305
:104C8000008008BD000000000000000008B5FFF72C
:104C9000E1FFFFF77BFC014B186008BD40E70320F4
:104CA0000548064A064908B5121A01F00BF8054BEB
:104CB000054A1A6008BD00BF00F4032004F4032075
:104CC000E4600B0000F403201E1C279A07B50023A4
:104CD00000931A466FF07701FFF75AFD03B05DF8B5
:104CE00004FB000007B543880A2B08D0502B0BD1DA
:104CF000094B1B684BB103B05DF804EB1847FFF795
:104D0000E5FF03B05DF804FB002300931A466FF043
:104D10007701FFF73DFDF4E7F0E6032010B51248F8
:104D20000021FFF7D7FD114B1A68114B9A42114B26
:104D30000CBF012200221A7001D0FFF7B1FFFFF76C
:104D40001DFC044600F0D4FF0B4B13B12046AFF31B
:104D5000008000210848FFF78DFDBDE8104007489E
:104D60000021FFF70BBD00BF494C0B0000F40320EE
:104D70001E1C279AECE6032000000000E54C0B0007
:104D8000704710B518210446FFF787F9204610BD7B
:104D9000F0B5037D062B8DB00E4600F104074FF0F1
:104DA000000412D000F1080515F8011D0A22304652
:104DB000FFF7B5FEAF42044419D0002CF4D02E21E9
:104DC0003046FFF79DFE0444EEE72F236A4639463E
:104DD0000A208DF80040FFF7F1FB684600F0BEFFA7
:104DE00033680246DB6869463046984704462046E9
:104DF0000DB0F0BD10B5054B0446112240F8043B40
:104E0000002100F06DFF204610BD00BFF85E0B00D2
:104E10000346074A10B543F8042B01F1100251F87C
:104E2000044B43F8044B9142F9D10A781A7010BD33
:104E3000F85E0B0010B59DF8084044EA032343EAEE
:104E4000024242EA016104234160037510BD000083
:104E500007B5064B0360CB7800938B784A780978C6
:104E6000FFF7E8FF03B05DF804FB00BFF85E0B003E
:104E7000417470477047704708B50021007CFFF708
:104E80004DFC40EAE07008BD08B50121007CFFF749
:104E900045FC40EAE07008BD08B5007CFFF736FC31
:104EA00020EAE07008BD08B5007CFFF727FC20EA87
:104EB000E07008BD13B50446007C0191FFF726FCA5
:104EC0000028019901DC607C20B1207CFFF72EFCDA
:104ED00020EAE07002B010BD007CFFF72FBC10B5D7
:104EE00014210446FFF7D9F8204610BD10B54FF441
:104EF0007A73044608460021C4E90113044B236079
:104F00000123207463741146FFF7E8FB204610BDAF
:104F10000C5F0B00007C0022FFF7E8BB007CFFF772
:104F200015BC10B514220446002100F0D9FE20461D
:104F300010BD000010B50F4C88B003A8FFF7F1FFBB
:104F40002178BFF35B8F11F001010FD12046019151
:104F5000FFF7A5F8019948B103AA0748FFF7C6FF74
:104F60002046FFF7A1F8054800F0A6FE024808B069
:104F700010BD00BFF4E60320F8E60320754E0B00D9
:104F800070474174704708B5007CFFF74FFB20EA7B
:104F9000E07008BD08B5007CFFF720FB20EAE07058
:104FA00008BD08B5007CFFF729FB40EAE07008BDAA
:104FB00008B5007CFFF71AFB40EAE07008BD007CF2
:104FC000FFF724BB37B5457C04462DB1207C03B0E8
:104FD000BDE83040FFF7FABA007C0191FFF726FBED
:104FE00000280199F2DC284603B030BD10B5142129
:104FF0000446FFF752F8204610BD000010B54FF4EC
:105000007A730446084611460022C4E90123044B82
:105010002360012320746374FFF710FB204610BD4A
:105020003C5F0B007047F8B5064615460C468F18D6
:10503000BC4206D0336814F8011B9B683046984781
:10504000F6E72846F8BD007C0022FFF7FFBA007C97
:105050000021FFF703BB007C0021FFF707BB007CAA
:105060000021FFF70BBB007C0021FFF70FBB10B541
:1050700014210446FFF711F8204610BD38B5044648
:1050800015464FF47A730022C4E90123094B2174B9
:10509000084623602946FFF709FBBF3008D16B693A
:1050A000DB0705D56868FFF7F5FBE868FFF7F2FB5B
:1050B000204638BD6C5F0B00002240681146FFF7A8
:1050C00089BB002240681146FFF7A4BB002240685C
:1050D0001146FFF7AFBB40680022FFF7A3BB406853
:1050E000002281F00101FFF78DBB002340681A46C2
:1050F0001946FFF77FBB002340681A461946FFF7A1
:1051000071BB002240681146FFF754BB4068002283
:105110000221FFF757BB002340681A46FFF742BB46
:10512000024B04225A60024A1A6070470CE70320BF
:10513000945F0B00002340681A46FFF733BB4068BA
:1051400000220221FFF73EBB002240681146FFF714
:1051500031BB002240681146FFF73CBB002340688A
:105160001A461946FFF73EBB002340681A46194607
:10517000FFF740BB40680021FFF764BB4068002197
:10518000FFF768BB4068002281F00101FFF73ABBDE
:1051900040680022FFF746BB002240681146FFF737
:1051A00049BB002240681146FFF734BB2DE9F043AC
:1051B00095B014460D460746FFF71CFE00211C2241
:1051C0000DA8009100F08CFD40230C9320466B4607
:1051D0000CAA0021FFF792F9044600284BD10246A1
:1051E00001216868FFF7F6FA0221804622466868C6
:1051F000FFF7F0FA009E81462146002E3BD00029A1
:1052000039D17368022B03D00A2B11D0F669F4E769
:10521000B8F1000FFAD0716906A8043107ADFFF7A5
:1052200017FE0FCD3C1D0FC42B6823704146EDE7E0
:10523000B9F1000FEAD07469102201A800F050FD06
:1052400006238DF8143001AD04F1080318341868F2
:1052500059682A4603C20833A3421546F7D101A96B
:1052600006A807ADFFF7D4FD0FCD3C1D0FC42B687A
:1052700023704946CAE70098FFF738F9384615B059
:10528000BDE8F083024B034A1A6000225A6070475F
:1052900014E70320D05F0B00232813B502D90020A8
:1052A00002B010BDA0F10B03022B1AD8174C2178C5
:1052B000BFF35B8F11F001010BD120460191FEF786
:1052C000EEFE019928B11248FFF74AFB2046FEF78F
:1052D000EBFE0F4B1878FFF7F9F90028DFD101201A
:1052E000DEE7012809D800F0D3F80021007CFFF7A1
:1052F000D5F980F00100C0B2D2E709380128EED814
:1053000000F086F8007CFFF789F9F2E71CE703203C
:1053100020E70320232838B504460D460AD8FF2984
:1053200008D0FFF7B9FF28B129462046BDE838402C
:10533000FFF7F4B838BD38B504460D46FFF7F6F868
:10534000FF2810D0062804D84D2323FA00F0C30705
:1053500009D42046FFF7A0FF28B129462046BDE822
:105360003840FFF7EBB838BD10B50446FFF7DEF85C
:10537000031FDBB2012B08D92046FFF78DFF20B1B8
:105380002046BDE81040FFF7E1B8002010BD38B559
:1053900004460D46FFF780FFF0B104212046FFF7D9
:1053A000B5F8042805D1A9B22046BDE83840FFF77A
:1053B000D5B802212046FFF7A9F802280CD12046D3
:1053C000FFF7B4F8012801D0042805D1294620466A
:1053D000BDE83840FFF7CAB838BD704738B5044655
:1053E00014252A46002100F07BFC25804025074932
:1053F00025812846258200F06FF804496060284620
:1054000000F06AF8E060204638BD00BF04600B0081
:1054100030B50E4D2978BFF35B8F11F0010487B0D2
:1054200011D12846FEF73BFE68B101A8FFF7D6FF71
:1054300001AA21460648FFF7E1FD2846FEF734FEA3
:10544000044800F039FC024807B030BD28E70320CB
:105450002CE70320DB530B007047000038B50A4BE4
:1054600003600123044643610849202000F034F81A
:10547000202560600549A560284600F02DF8C4E9A4
:105480000305204638BD00BF1800010004600B0072
:1054900030B50E4D2978BFF35B8F11F0010487B052
:1054A00011D12846FEF7FBFD68B16846FFF7D6FF2D
:1054B0006A4621460648FFF7E1FD2846FEF7F4FD5F
:1054C000044800F0F9FB024807B030BD44E7032070
:1054D00048E7032059540B00FEF7DDBD81F0004181
:1054E00002E000BF83F0004330B54FEA41044FEAC9
:1054F000430594EA050F08BF90EA020F1FBF54EA64
:10550000000C55EA020C7FEA645C7FEA655C00F0FF
:10551000E2804FEA5454D4EB5555B8BF6D420CDDD0
:105520002C4480EA020281EA030382EA000083EA53
:10553000010180EA020281EA0303362D88BF30BDF3
:1055400011F0004F4FEA01314FF4801C4CEA113149
:1055500002D0404261EB410113F0004F4FEA0333A8
:105560004CEA133302D0524263EB430394EA050F33
:1055700000F0A780A4F10104D5F1200E0DDB02FAA2
:105580000EFC22FA05F2801841F1000103FA0EF236
:10559000801843FA05F359410EE0A5F120050EF1FC
:1055A000200E012A03FA0EFC28BF4CF0020C43FA2D
:1055B00005F3C01851EBE37101F0004507D54FF03A
:1055C000000EDCF1000C7EEB00006EEB0101B1F58A
:1055D000801F1BD3B1F5001F0CD349085FEA3000D0
:1055E0004FEA3C0C04F101044FEA445212F5800FDB
:1055F00080F09A80BCF1004F08BF5FEA500C50F178
:10560000000041EB045141EA050130BD5FEA4C0C5A
:10561000404141EB0101013C28BFB1F5801FE9D2B7
:1056200091F0000F04BF01460020B1FA81F308BFDA
:105630002033A3F10B03B3F120020CDA0C3208DDA6
:1056400002F1140CC2F10C0201FA0CF021FA02F181
:105650000CE002F11402D8BFC2F1200C01FA02F1F1
:1056600020FA0CFCDCBF41EA0C019040E41AA2BF16
:1056700001EB0451294330BD6FEA04041F3C1CDADE
:105680000C340EDC04F11404C4F1200220FA04F0FE
:1056900001FA02F340EA030021FA04F345EA0301A8
:1056A00030BDC4F10C04C4F1200220FA02F001FA6A
:1056B00004F340EA0300294630BD21FA04F02946EC
:1056C00030BD94F0000F83F4801306BF81F4801185
:1056D0000134013D4EE77FEA645C18BF7FEA655CF8
:1056E00029D094EA050F08BF90EA020F05D054EACA
:1056F000000C04BF1946104630BD91EA030F1EBFCF
:105700000021002030BD5FEA545C05D140004941D2
:1057100028BF41F0004130BD14F580043CBF01F5C5
:10572000801130BD01F0004545F0FE4141F47001AB
:105730004FF0000030BD7FEA645C1ABF1946104686
:105740007FEA655C1CBF0B46024650EA013406BF87
:1057500052EA033591EA030F41F4002130BD00BF46
:1057600090F0000F04BF0021704730B54FF4806403
:1057700004F132044FF000054FF0000150E700BF84
:1057800090F0000F04BF0021704730B54FF48064E3
:1057900004F1320410F0004548BF40424FF00001D0
:1057A0003EE700BF42004FEAE2014FEA31014FEA13
:1057B00002701FBF12F07F4393F07F4F81F0605162
:1057C000704732F07F4208BF704793F07F4F04BFAD
:1057D00041F40021704730B54FF4607401F000458A
:1057E00021F000411CE700BF50EA010208BF7047EA
:1057F00030B54FF000050AE050EA010208BF7047DB
:1058000030B511F0004502D5404261EB41014FF443
:10581000806404F132045FEA915C3FF4D8AE4FF04B
:1058200003025FEADC0C18BF03325FEADC0C18BF2E
:10583000033202EBDC02C2F1200300FA03FC20FA7F
:1058400002F001FA03FE40EA0E0021FA02F11444CC
:10585000BDE600BF70B54FF0FF0C4CF4E06C1CEAE5
:1058600011541DBF1CEA135594EA0C0F95EA0C0F56
:1058700000F0DEF82C4481EA030621EA4C5123EAC9
:105880004C5350EA013518BF52EA033541F48011F8
:1058900043F4801338D0A0FB02CE4FF00005E1FBAB
:1058A00002E506F00042E0FB03E54FF00006E1FBF5
:1058B00003569CF0000F18BF4EF0010EA4F1FF0438
:1058C000B6F5007F64F5407404D25FEA4E0E6D4178
:1058D00046EB060642EAC62141EA55514FEAC52089
:1058E00040EA5E504FEACE2EB4F1FD0C88BFBCF505
:1058F000E06F1ED8BEF1004F08BF5FEA500E50F1B6
:10590000000041EB045170BD06F0004646EA01017B
:1059100040EA020081EA0301B4EB5C04C2BFD4EBAD
:105920000C0541EA045170BD41F480114FF0000EA6
:10593000013C00F3AB8014F1360FDEBF002001F014
:10594000004170BDC4F10004203C35DA0C341BDC8E
:1059500004F11404C4F1200500FA05F320FA04F060
:1059600001FA05F240EA020001F0004221F0004194
:1059700010EBD37021FA04F642EB06015EEA430E07
:1059800008BF20EAD37070BDC4F10C04C4F1200537
:1059900000FA04F320FA05F001FA04F240EA0200EA
:1059A00001F0004110EBD37041F100015EEA430EBB
:1059B00008BF20EAD37070BDC4F1200500FA05F2DB
:1059C0004EEA020E20FA04F301FA05F243EA02035A
:1059D00021FA04F001F0004121FA04F220EA020069
:1059E00000EBD3705EEA430E08BF20EAD37070BDAF
:1059F00094F0000F0FD101F00046400041EB01018F
:105A000011F4801F08BF013CF7D041EA060195F070
:105A1000000F18BF704703F00046520043EB03032A
:105A200013F4801F08BF013DF7D043EA0603704717
:105A300094EA0C0F0CEA135518BF95EA0C0F0CD022
:105A400050EA410618BF52EA4306D1D181EA030168
:105A500001F000414FF0000070BD50EA410606BF62
:105A60001046194652EA430619D094EA0C0F02D1A7
:105A700050EA013613D195EA0C0F05D152EA0336EC
:105A80001CBF104619460AD181EA030101F000410A
:105A900041F0FE4141F470014FF0000070BD41F053
:105AA000FE4141F4780170BD70B54FF0FF0C4CF42D
:105AB000E06C1CEA11541DBF1CEA135594EA0C0F4C
:105AC00095EA0C0F00F0A7F8A4EB050481EA030E99
:105AD00052EA03354FEA013100F088804FEA033380
:105AE0004FF0805545EA131343EA12634FEA02224E
:105AF00045EA111545EA10654FEA00260EF000410F
:105B00009D4208BF964244F1FD0404F5407402D260
:105B10005B084FEA3202B61A65EB03055B084FEAF1
:105B200032024FF480104FF4002CB6EB020E75EBEE
:105B3000030E22BFB61A754640EA0C005B084FEA16
:105B40003202B6EB020E75EB030E22BFB61A754693
:105B500040EA5C005B084FEA3202B6EB020E75EBDE
:105B6000030E22BFB61A754640EA9C005B084FEA56
:105B70003202B6EB020E75EB030E22BFB61A754663
:105B800040EADC0055EA060E18D04FEA051545EA52
:105B900016754FEA06164FEAC30343EA52734FEAFB
:105BA000C2025FEA1C1CC0D111F4801F0BD141EA74
:105BB00000014FF000004FF0004CB6E711F4801FD9
:105BC00004BF01430020B4F1FD0C88BFBCF5E06FB9
:105BD0003FF6AFAEB5EB030C04BFB6EB020C5FEAC9
:105BE000500C50F1000041EB045170BD0EF0004E1E
:105BF0004EEA113114EB5C04C2BFD4EB0C0541EA50
:105C0000045170BD41F480114FF0000E013C90E64C
:105C100045EA060E8DE60CEA135594EA0C0F08BF10
:105C200095EA0C0F3FF43BAF94EA0C0F0AD150EA0F
:105C300001347FF434AF95EA0C0F7FF425AF1046A2
:105C400019462CE795EA0C0F06D152EA03353FF4CA
:105C5000FDAE1046194622E750EA410618BF52EA47
:105C600043067FF4C5AE50EA41047FF40DAF52EA1B
:105C700043057FF4EBAE12E74A0011D212F5001291
:105C800011D20DD56FF47873B3EB62520ED44FEA94
:105C9000C12343F0004343EA505323FA02F0704714
:105CA0004FF00000704750EA013002D14FF0FF3052
:105CB00070474FF000007047002301461A4618460F
:105CC00000F054B80A44914200F1FF3300D170470C
:105CD00010B511F8014B03F8014F9142F9D110BDF5
:105CE00002440346934200D1704703F8011BF9E7D1
:105CF00038B5104B1D68AB6B0446B3B91820FEF7DE
:105D0000C1FD0246A86320B90B4B0C484221FEF7A7
:105D1000D9FD0B490B4BC0E900130B4B83600B23E0
:105D2000838100210120C2E90401AB6B00221C61C8
:105D30005A6138BD18E6032005600B001C600B009B
:105D40000E33CDAB34126DE6ECDE0500034611F8E0
:105D5000012B03F8012B002AF9D17047034613F8F1
:105D6000012B002AFBD1181A013870472DE9F8439E
:105D7000DFF8B8800646D8F800001F460D46914669
:105D800000F056F8254B1C6834B9254C1C60254B97
:105D900013B11B68C4F8883063681F2B07DDD8F87F
:105DA000000000F047F84FF0FF30BDE8F8834EB335
:105DB000D4F8880088B91C4B23B9D8F8000000F04B
:105DC00038F8F0E74FF48470FEF75CFD0028F4D05B
:105DD0000023C0E94033C4F88800636840F823908A
:105DE00001229A4000EB8301D0F800311343C0F840
:105DF0000031022EC1F8807002BFD0F80431134385
:105E0000C0F804316368D8F800005A1C023362609D
:105E100044F8235000F00EF80020C6E7E8E703201E
:105E20005CE703200000000085480B007CE60320AF
:105E3000704770477047000021400B005D400B0029
:105E400085400B0089400B00000000005061636B2F
:105E500061676520256420282564204279746529BE
:105E6000202D3E2053657269616C0025730000008F
:105E7000000000000100000002000000030000001C
:105E800004000000050000000600000007000000FC
:105E900008000000000000000000000043490B0063
:105EA00039490B002F490B0025490B0019490B00FC
:105EB0000D490B0075510B007D510B0001490B0082
:105EC000F9480B00EF480B00E5480B00AD510B0003
:105ED0006170700025592D256D2D25645425483A93
:105EE000254D3A2553257A0061736374696D650009
:105EF0000000000000000000914D0B00814D0B00E0
:105F0000834D0B000000000000000000774E0B00E6
:105F1000DF4E0B00B54E0B00B14A0B00A74E0B0035
:105F2000794E0B00894E0B00D94E0B00994E0B0099
:105F3000714E0B000000000000000000814F0B00BC
:105F4000ED4F0B00C54F0B00B14A0B00954F0B00F6
:105F5000B14F0B00A34F0B00BF4F0B00834F0B0043
:105F6000874F0B00000000000000000025500B00D0
:105F70006F500B0047500B0027500B004F500B0089
:105F800057500B005F500B0067500B0000000000E3
:105F90000000000017510B000D510B0003510B00C6
:105FA000B9500B00F7500B00EB500B0075510B0074
:105FB0007D510B00DF500B00D7500B00CD500B0074
:105FC000C3500B00AD510B000000000000000000AA
:105FD00035510B003F510B0049510B0053510B0041
:105FE0005D510B0069510B0075510B007D510B0089
:105FF00085510B0091510B0099510B00A3510B00DF
:10600000AD510B00005245454E54206D616C6C6FD4
:106010006320737563636565646564002F6D6E74DA
:106020002F776F726B73706163652F776F726B730D
:10603000706163652F4743432D31302D7069706562
:106040006C696E652F6A656E6B696E732D4743438D
:106050002D31302D706970656C696E652D34385F37
:1060600032303230313132345F31363036313830DF
:106070003634312F7372632F6E65776C69622F6EC1
:1060800065776C69622F6C6962632F7374646C69E5
:10609000622F72616E642E6300000000AD440B003D
:1060A0004D490B0075490B00A14A0B00194C0B0020
:1060B000294C0B003D4C0B0021510B0085520B006D
:1060C000040000001400000003000000474E5500CB
:1060D00027146867612047CC17A96269F05112C084
:0460E0003F07E9404D
:0460E40000000000B8
:1060E80000002041FD400B00E85E0B001CE6032089
:1060F8000000000000000000000000000000000098
:106108000000000000000000000000000000000087
:106118000000000000000000000000000000000077
:106128000000000000000000000000000000000067
:106138000000000000000000000000000000000057
:106148000000000000000000000000000000000047
:04615800ECE703204D
:10615C00FFFFFFFF00000102030405060708090A00
:10616C000B0C0D0E0F101112131415161718191AFB
:08617C001B1C1D1E1F20280042
:046184007856341203
:04000003B0004020E9
:00000001FF
