:02000002B0004C
:1040000000400B00F45E0B00000006000C000502EF
:084010000401A60F00000000EE
:04401800C05B0B007E
:1040200009480A49884208B505D0094A824202D0A7
:10403000121A01F013FD0748074A0021121A01F075
:104040001BFD014808BD00BF34E60320585E0B008D
:10405000A8E60320A8E60320EDE7032070B5074E8D
:10406000074C00F027FDA41BA4080025AC4200D19A
:1040700070BD56F8043B98470135F7E7005E0B002A
:10408000245E0B0000F013B808B500F069F9BDE834
:10409000084000F0C7BC00F0BBBB00F0C1BB00781B
:1040A000B0FA80F04009704701230370704738B5BB
:1040B00000F00CFE4FF4165100F0F8FD002000F067
:1040C00033FA42F210750446002000F02DFA001B6E
:1040D00061F10001A84271F1000307D200F0F6FD82
:1040E00000F0E8FD10B900F083FBEDE700F0EEFD15
:1040F00000F0E0FD01210E2000F0D8FF01210F208B
:1041000000F0D4FF0121102000F0D0FF0021112089
:1041100000F0CCFF0121072000F0C8FFBDE83840C7
:104120000121132000F0C2BF2DE9F74315468FB2DD
:104130001C46064600213846ADB210EE108AA4B2E5
:1041400000F0F1FF0021284600F0EDFF002120469D
:1041500000F0E9FF76B93146384600F0E4FF00216F
:10416000284600F0E0FF0021204600F0DCFF03B00D
:10417000BDE8F083012E24D0022E36D1404601F056
:10418000DDF902460B460020714901F077F88046C0
:10419000894602460B4668A1D1E9000101F050FBB7
:1041A00001F036FC0146384600F0BDFF42464B4662
:1041B00063A1D1E9000101F043FB01F029FC0146B4
:1041C000CEE7404601F0BAF902460B4600206049AE
:1041D00001F054F802460B4659A1D1E9000101F063
:1041E0002FFB01F015FC0146B6E7032E25D0042E67
:1041F00033D0052E52D0062E6DD0072E00F08780CA
:10420000082EB4D1404601F099F902460B46002031
:104210004F4901F033F802460B46804689464AA1D1
:10422000D1E9000101F00CFB01F0F2FB0146384638
:1042300000F079FF42464B463FE0404601F07EF9F0
:1042400002460B460020424901F018F88046894694
:1042500002460B4600203F49A0E70021384600F007
:1042600062FF404601F06AF902460B4600203849D9
:1042700001F004F802460B4631A1D1E9000101F03A
:10428000DFFA01F0C5FB0146284600F04CFF002193
:10429000204603B0BDE8F04300F045BF002138469A
:1042A00000F041FF404601F049F902460B4600206C
:1042B000274900F0E3FF02460B4621A1D1E90001A6
:1042C00001F0BEFA01F0A4FB01460190284600F07F
:1042D0002AFF0199DCE70021384600F024FF002185
:1042E000284600F020FF404601F028F902460B4620
:1042F0000020174900F0C2FF02460B4610A1D1E989
:10430000000101F09DFA01F083FB0146C0E707EED2
:10431000108ADFED117A77EEC77A17EE900A01F076
:104320000DF902460B4600200C4901F089FA01F014
:104330006FFB0146D0E700BF0000000000606D4049
:104340000000000000E06F4000000000002062401C
:1043500000405940000069400000CA4200002E4061
:104360002DE9F041112000F0CBFE374E374B384D90
:10437000003818BF012018703378834218BF30709E
:1043800033786BB92B78002B5BD00021072000F02D
:104390009EFE0021132000F09AFE00232B7050E0B7
:1043A0002C78002C4DD1DFF8B0802A4F98ED000A10
:1043B00010230F220E212046FFF7B6FE0121072011
:1043C00000F085FE0121132000F081FE40F2DC5058
:1043D00000F0FCFA2146072000F079FE2146132068
:1043E00000F075FEDFF874C0386898ED000A5CF8DC
:1043F000200010230F220E21FFF796FE40F2DC5022
:1044000000F0E4FA0121072000F061FE40F2DC50E8
:1044100000F0DCFA2146072000F059FE10230F229D
:1044200098ED000A0E212046FFF77EFE3A68012330
:104430001A442B70082AD8BF13463B603378002BF0
:10444000A3D0BDE8F08100BFB6E60320B4E60320A8
:10445000B5E6032038E6032034E60320D45B0B00E6
:10446000044B0022C3E90022A2F580329A600220A8
:1044700000F03AB9A8E6032008B5024B1B689B6818
:10448000019308BD6802030008B5024B1B68DB6896
:10449000019308BD6802030008B5024B1B685B6806
:1044A000019308BD2C02030008B5024B1B689B68F2
:1044B000019308BD2C02030008B5024B1B68DB68A2
:1044C000019308BD2C02030008B5024B1B681B6951
:1044D000019308BD2C02030008B5024B1B685B6901
:1044E000019308BD2C02030008B5024B1B689B6AB0
:1044F000019308BD2C02030008B5024B1B689B6F9B
:10450000019308BD2C02030008B5024B1B685B68D1
:10451000019308BD1802030008B5024B1B685B69D4
:10452000019308BD1802030008B5024B1B68DB6D40
:10453000019308BD1802030008B5024B1B685B6CB1
:10454000019308BD4802030008B5024B1B685B6974
:10455000019308BD6402030008B5024B1B68DB68C9
:10456000019308BD3C02030008B5024B1B681B69A0
:10457000019308BD3C02030008B5024B1B685B6950
:10458000019308BD3C02030008B5024B1B689B6900
:10459000019308BD3C02030008B5024B1B68DB69B0
:1045A000019308BD3C02030008B5024B1B681B6A5F
:1045B000019308BD3C02030008B5024B1B689B6ACF
:1045C000019308BD3C02030008B5024B1B681B6C3D
:1045D000019308BD3C02030008B5024B1B681B6A2F
:1045E000019308BD2802030008B5024B1B685B6AF3
:1045F000019308BD2802030008B5024B1B689B6AA3
:10460000019308BD2802030008B5024B1B68DB6A52
:10461000019308BD2802030008B5024B1B681B6B01
:10462000019308BD2802030008B5024B1B685B6BB1
:10463000019308BD2802030008B5024B1B681B6CE0
:10464000019308BD2802030008B5024B1B68DB6913
:10465000019308BD3002030008B5024B1B681B6ABA
:10466000019308BD3002030008B5024B1B681B68AC
:10467000019308BD4C02030008B5024B1B685B6840
:10468000019308BD4C02030008B5024B1B681B696F
:10469000019308BD4C02030008B5024B1B685B691F
:1046A000019308BD4C02030008B5024B1B689B69CF
:1046B000019308BD4C02030008B5024B1B68DB697F
:1046C000019308BD4C02030008B5024B1B681B6A2E
:1046D000019308BD4C02030008B5024B1B689B6A9E
:1046E000019308BD4C02030008B5024B1B685B68D0
:1046F000019308BD2002030008B5024B1B685B69EB
:10470000019308BD2002030008B5034B1B68D3F8D2
:104710008830019308BD00002002030008B5034B58
:104720001B68D3F89430019308BD000020020300F9
:1047300008B5024B1B685B68019308BD400203008B
:1047400008B5024B1B689B68019308BD400203003B
:1047500008B5024B1B68DB68019308BD40020300EB
:1047600008B5024B1B681B69019308BD400203009A
:1047700008B5024B1B685B69019308BD400203004A
:1047800008B5024B1B689B69019308BD40020300FA
:1047900008B5024B1B68DB69019308BD40020300AA
:1047A00008B5024B1B681B6A019308BD4002030059
:1047B00008B5024B1B681B6B019308BD4002030048
:1047C00008B5024B1B685B6B019308BD40020300F8
:1047D00008B5024B1B681B6C019308BD4002030027
:1047E00008B5024B1B685B6C019308BD40020300D7
:1047F00008B5024B1B689B68019308BD4402030087
:1048000008B5024B1B68DB6B019308BD4402030033
:1048100008B5024B1B681B68019308BD1C0203000E
:1048200008B5024B1B685B68019308BD1C020300BE
:1048300008B5024B1B681B6C019308BD1C020300EA
:1048400008B5024B1B685B6C019308BD1C0203009A
:10485000002240681146FFF7A3BF002240681146BE
:10486000FFF7AEBF40680022FFF7A2BF40680022FA
:1048700081F00101FFF78CBF002340681A461946FA
:10488000FFF77EBF002340681A461946FFF770BF46
:10489000002240681146FFF763BF002240681146BE
:1048A000FFF74EBF406800220221FFF751BF0023EF
:1048B00040681A46FFF73CBF024B03225A60024A87
:1048C0001A607047B8E60320005C0B0010B5044680
:1048D00008462170FFF7B8FE00236360204610BD34
:1048E000054B02221A60054B054A9A600020C3E975
:1048F0000000FFF7F9BE00BFCCE60320C0E60320AE
:104900000000FFFF024800230360FFF715BE00BF51
:10491000D0E60320F8B506460D468F180024BD42A8
:104920000CD0336815F8011B9B6830469847031E6E
:1049300001DB1C44F3E7002C08BF1C462046F8BDF1
:1049400013B50446084659B1019101F0CBF823682C
:104950000199DB680246204602B0BDE810401847C6
:1049600002B010BD03689B68184730B58BB00023B8
:10497000012A8DF8243098BF0A2209AC0D46B1FBFC
:10498000F2F101FB125303F0FF03092B94BF303304
:104990003733DBB2AA4204F8013DEFD92146FFF7D5
:1049A000CFFF0BB030BD0000014B024A1A607047C8
:1049B000D4E60320345C0B00024B1A68024B1A60E9
:1049C000704700BF3CE60320D8E603200021FFF734
:1049D00093BE0000014B00229A607047DCE6032082
:1049E000014B1860704700BF40E6032008B50B4B31
:1049F00043B100F06BF903681B699847002801DD9B
:104A0000AFF30080064B43B100F0CEFB03681B6997
:104A10009847002801DDAFF3008008BD00000000CA
:104A20000000000008B5FFF7E1FFFFF775FD014B3F
:104A3000186008BD40E703200548064A064908B546
:104A4000121A01F00BF8054B054A1A6008BD00BFA9
:104A500000F4032004F40320545E0B0000F4032050
:104A60001E1C279A07B5002300931A466FF07701A2
:104A7000FFF754FE03B05DF804FB000007B5438860
:104A80000A2B08D0502B0BD1094B1B684BB103B03C
:104A90005DF804EB1847FFF7E5FF03B05DF804FB92
:104AA000002300931A466FF07701FFF737FEF4E713
:104AB000F0E6032010B512480021FFF7C1FE114BAC
:104AC0001A68114B9A42114B0CBF012200221A7036
:104AD00001D0FFF7B1FFFFF717FD044600F0D4FF48
:104AE0000B4B13B12046AFF3008000210848FFF7BD
:104AF00087FEBDE8104007480021FFF705BE00BF54
:104B0000E1490B0000F403201E1C279AECE6032069
:104B1000000000007D4A0B00704710B518210446C4
:104B2000FFF7BBFA204610BDF0B5037D062B8DB014
:104B30000E4600F104074FF0000412D000F1080502
:104B400015F8011D0A223046FFF70FFFAF4204445B
:104B500019D0002CF4D02E213046FFF703FF044477
:104B6000EEE72F236A4639460A208DF80040FFF70A
:104B7000EBFC684600F0B6FF33680246DB68694626
:104B800030469847044620460DB0F0BD10B5054BA1
:104B90000446112240F8043B002100F06DFF20463E
:104BA00010BD00BF5C5C0B000346074A10B543F81C
:104BB000042B01F1100251F8044B43F8044B9142CD
:104BC000F9D10A781A7010BD5C5C0B0010B59DF825
:104BD000084044EA032343EA024242EA0161042313
:104BE0004160037510BD000007B5064B0360CB782C
:104BF00000938B784A780978FFF7E8FF03B05DF8F7
:104C000004FB00BF5C5C0B00417470477047704749
:104C100008B50021007CFFF747FD40EAE07008BDC1
:104C200008B50121007CFFF73FFD40EAE07008BDB8
:104C300008B5007CFFF730FD20EAE07008BD08B53C
:104C4000007CFFF721FD20EAE07008BD13B50446A3
:104C5000007C0191FFF720FD0028019901DC607CB8
:104C600020B1207CFFF728FD20EAE07002B010BDE3
:104C7000007CFFF729BD10B514210446FFF70DFA9B
:104C8000204610BD10B54FF47A7304460846002143
:104C9000C4E90113044B236001232074637411469B
:104CA000FFF7E2FC204610BD705C0B00007C002288
:104CB000FFF7E2BC007CFFF70FBD10B514220446DD
:104CC000002100F0D9FE204610BD000010B50F4CA9
:104CD00088B003A8FFF7F1FF2178BFF35B8F11F0D5
:104CE00001010FD120460191FFF7D9F9019948B18F
:104CF00003AA0748FFF7C6FF2046FFF7D5F9054886
:104D000000F0A6FE024808B010BD00BFF4E6032084
:104D1000F8E603200D4C0B0070474174704708B54E
:104D2000007CFFF749FC20EAE07008BD08B5007C74
:104D3000FFF71AFC20EAE07008BD08B5007CFFF719
:104D400023FC40EAE07008BD08B5007CFFF714FCC6
:104D500040EAE07008BD007CFFF71EBC37B5457C1B
:104D600004462DB1207C03B0BDE83040FFF7F4BB12
:104D7000007C0191FFF720FC00280199F2DC284615
:104D800003B030BD10B514210446FFF786F9204664
:104D900010BD000010B54FF47A7304460846114662
:104DA0000022C4E90123044B2360012320746374AF
:104DB000FFF70AFC204610BDA05C0B007047F8B559
:104DC000064615460C468F18BC4206D0336814F8C8
:104DD000011B9B6830469847F6E72846F8BD007CE3
:104DE0000022FFF7F9BB007C0021FFF7FDBB007C30
:104DF0000021FFF701BC007C0021FFF705BC007C0F
:104E00000021FFF709BC10B514210446FFF745F94E
:104E1000204610BD38B5044615464FF47A7300227B
:104E2000C4E90123094B2174084623602946FFF792
:104E300003FCBF3008D16B69DB0705D56868FFF755
:104E4000EFFCE868FFF7ECFC204638BDD05C0B00B7
:104E5000002240681146FFF783BC002240681146DB
:104E6000FFF79EBC002240681146FFF7A9BC4068CE
:104E70000022FFF79DBC4068002281F00101FFF78E
:104E800087BC002340681A461946FFF779BC002307
:104E900040681A461946FFF76BBC0022406811466D
:104EA000FFF74EBC406800220221FFF751BC0023EF
:104EB00040681A46FFF73CBC024B04225A60024A83
:104EC0001A6070470CE70320F85C0B000023406871
:104ED0001A46FFF72DBC406800220221FFF738BCBC
:104EE000002240681146FFF72BBC002240681146A3
:104EF000FFF736BC002340681A461946FFF738BC56
:104F0000002340681A461946FFF73ABC4068002162
:104F1000FFF75EBC40680021FFF762BC40680022DA
:104F200081F00101FFF734BC40680022FFF740BC6C
:104F3000002240681146FFF743BC0022406811463A
:104F4000FFF72EBC2DE9F04395B014460D460746F9
:104F5000FFF71CFE00211C220DA8009100F08CFD23
:104F600040230C9320466B460CAA0021FFF78CFAD5
:104F7000044600284BD1024601216868FFF7F0FB88
:104F80000221804622466868FFF7EAFB009E8146C0
:104F90002146002E3BD0002939D17368022B03D063
:104FA0000A2B11D0F669F4E7B8F1000FFAD0716955
:104FB00006A8043107ADFFF717FE0FCD3C1D0FC447
:104FC0002B6823704146EDE7B9F1000FEAD0746910
:104FD000102201A800F050FD06238DF8143001AD19
:104FE00004F108031834186859682A4603C20833C4
:104FF000A3421546F7D101A906A807ADFFF7D4FDD6
:105000000FCD3C1D0FC42B6823704946CAE700989A
:10501000FFF732FA384615B0BDE8F083024B034A79
:105020001A6000225A60704714E70320345D0B00B9
:10503000232813B502D9002002B010BDA0F10B0344
:10504000022B1AD8174C2178BFF35B8F11F00101A6
:105050000BD120460191FFF722F8019928B112489F
:10506000FFF734FC2046FFF71FF80F4B1878FFF7C7
:10507000F3FA0028DFD10120DEE7012809D800F08B
:10508000D3F80021007CFFF7CFFA80F00100C0B216
:10509000D2E709380128EED800F086F8007CFFF747
:1050A00083FAF2E71CE7032020E70320232838B522
:1050B00004460D460AD8FF2908D0FFF7B9FF28B1EA
:1050C00029462046BDE83840FFF7EEB938BD38B56F
:1050D00004460D46FFF7F0F9FF2810D0062804D843
:1050E0004D2323FA00F0C30709D42046FFF7A0FFA1
:1050F00028B129462046BDE83840FFF7E5B938BD5C
:1051000010B50446FFF7D8F9031FDBB2012B08D90D
:105110002046FFF78DFF20B12046BDE81040FFF785
:10512000DBB9002010BD38B504460D46FFF780FFFF
:10513000F0B104212046FFF7AFF9042805D1A9B248
:105140002046BDE83840FFF7CFB902212046FFF7DF
:10515000A3F902280CD12046FFF7AEF9012801D0AF
:10516000042805D129462046BDE83840FFF7C4B9D8
:1051700038BD704738B5044614252A46002100F092
:105180007BFC25804025074925812846258200F0A3
:105190006FF804496060284600F06AF8E060204635
:1051A00038BD00BF685D0B0030B50E4D2978BFF3E8
:1051B0005B8F11F0010487B011D12846FEF76FFF15
:1051C00068B101A8FFF7D6FF01AA21460648FFF7FC
:1051D000E1FD2846FEF768FF044800F039FC02486C
:1051E00007B030BD28E703202CE7032073510B00E4
:1051F0007047000038B50A4B036001230446436141
:105200000849202000F034F8202560600549A56099
:10521000284600F02DF8C4E90305204638BD00BF3C
:1052200018000100685D0B0030B50E4D2978BFF302
:105230005B8F11F0010487B011D12846FEF72FFFD4
:1052400068B16846FFF7D6FF6A4621460648FFF771
:10525000E1FD2846FEF728FF044800F0F9FB02486C
:1052600007B030BD44E7032048E70320F1510B00AD
:10527000FEF711BF81F0004102E000BF83F0004360
:1052800030B54FEA41044FEA430594EA050F08BFE1
:1052900090EA020F1FBF54EA000C55EA020C7FEAA5
:1052A000645C7FEA655C00F0E2804FEA5454D4EB22
:1052B0005555B8BF6D420CDD2C4480EA020281EAEC
:1052C000030382EA000083EA010180EA020281EA24
:1052D0000303362D88BF30BD11F0004F4FEA013176
:1052E0004FF4801C4CEA113102D0404261EB410185
:1052F00013F0004F4FEA03334CEA133302D052420B
:1053000063EB430394EA050F00F0A780A4F10104C6
:10531000D5F1200E0DDB02FA0EFC22FA05F2801800
:1053200041F1000103FA0EF2801843FA05F35941E6
:105330000EE0A5F120050EF1200E012A03FA0EFC65
:1053400028BF4CF0020C43FA05F3C01851EBE3718F
:1053500001F0004507D54FF0000EDCF1000C7EEBAC
:1053600000006EEB0101B1F5801F1BD3B1F5001FEA
:105370000CD349085FEA30004FEA3C0C04F1010409
:105380004FEA445212F5800F80F09A80BCF1004F32
:1053900008BF5FEA500C50F1000041EB045141EAB4
:1053A000050130BD5FEA4C0C404141EB0101013C7D
:1053B00028BFB1F5801FE9D291F0000F04BF01466C
:1053C0000020B1FA81F308BF2033A3F10B03B3F13E
:1053D00020020CDA0C3208DD02F1140CC2F10C02CE
:1053E00001FA0CF021FA02F10CE002F11402D8BF2C
:1053F000C2F1200C01FA02F120FA0CFCDCBF41EAF8
:105400000C019040E41AA2BF01EB0451294330BDC6
:105410006FEA04041F3C1CDA0C340EDC04F11404A3
:10542000C4F1200220FA04F001FA02F340EA03007A
:1054300021FA04F345EA030130BDC4F10C04C4F1C0
:10544000200220FA02F001FA04F340EA03002946A0
:1054500030BD21FA04F0294630BD94F0000F83F4EA
:10546000801306BF81F480110134013D4EE77FEACD
:10547000645C18BF7FEA655C29D094EA050F08BF19
:1054800090EA020F05D054EA000C04BF19461046FA
:1054900030BD91EA030F1EBF0021002030BD5FEA3E
:1054A000545C05D14000494128BF41F0004130BD66
:1054B00014F580043CBF01F5801130BD01F00045BA
:1054C00045F0FE4141F470014FF0000030BD7FEA2D
:1054D000645C1ABF194610467FEA655C1CBF0B4628
:1054E000024650EA013406BF52EA033591EA030F3F
:1054F00041F4002130BD00BF90F0000F04BF002137
:10550000704730B54FF4806404F132044FF0000569
:105510004FF0000150E700BF90F0000F04BF0021E2
:10552000704730B54FF4806404F1320410F0004548
:1055300048BF40424FF000013EE700BF42004FEA43
:10554000E2014FEA31014FEA02701FBF12F07F43C0
:1055500093F07F4F81F06051704732F07F4208BF77
:10556000704793F07F4F04BF41F40021704730B57E
:105570004FF4607401F0004521F000411CE700BFCA
:1055800050EA010208BF704730B54FF000050AE04D
:1055900050EA010208BF704730B511F0004502D54E
:1055A000404261EB41014FF4806404F132045FEA50
:1055B000915C3FF4D8AE4FF003025FEADC0C18BFF9
:1055C00003325FEADC0C18BF033202EBDC02C2F1EB
:1055D000200300FA03FC20FA02F001FA03FE40EA7D
:1055E0000E0021FA02F11444BDE600BF70B54FF081
:1055F000FF0C4CF4E06C1CEA11541DBF1CEA13555F
:1056000094EA0C0F95EA0C0F00F0DEF82C4481EAC6
:10561000030621EA4C5123EA4C5350EA013518BFE6
:1056200052EA033541F4801143F4801338D0A0FBD3
:1056300002CE4FF00005E1FB02E506F00042E0FB80
:1056400003E54FF00006E1FB03569CF0000F18BF86
:105650004EF0010EA4F1FF04B6F5007F64F540742E
:1056600004D25FEA4E0E6D4146EB060642EAC621C1
:1056700041EA55514FEAC52040EA5E504FEACE2E2E
:10568000B4F1FD0C88BFBCF5E06F1ED8BEF1004F31
:1056900008BF5FEA500E50F1000041EB045170BDAD
:1056A00006F0004646EA010140EA020081EA0301F1
:1056B000B4EB5C04C2BFD4EB0C0541EA045170BDED
:1056C00041F480114FF0000E013C00F3AB8014F167
:1056D000360FDEBF002001F0004170BDC4F10004B0
:1056E000203C35DA0C341BDC04F11404C4F1200531
:1056F00000FA05F320FA04F001FA05F240EA02008C
:1057000001F0004221F0004110EBD37021FA04F6C1
:1057100042EB06015EEA430E08BF20EAD37070BD7B
:10572000C4F10C04C4F1200500FA04F320FA05F0DA
:1057300001FA04F240EA020001F0004110EBD370DC
:1057400041F100015EEA430E08BF20EAD37070BD4C
:10575000C4F1200500FA05F24EEA020E20FA04F325
:1057600001FA05F243EA020321FA04F001F00041D4
:1057700021FA04F220EA020000EBD3705EEA430E45
:1057800008BF20EAD37070BD94F0000F0FD101F074
:105790000046400041EB010111F4801F08BF013CAD
:1057A000F7D041EA060195F0000F18BF704703F0EB
:1057B0000046520043EB030313F4801F08BF013D72
:1057C000F7D043EA0603704794EA0C0F0CEA13552E
:1057D00018BF95EA0C0F0CD050EA410618BF52EAE8
:1057E0004306D1D181EA030101F000414FF00000EE
:1057F00070BD50EA410606BF1046194652EA4306FC
:1058000019D094EA0C0F02D150EA013613D195EA6F
:105810000C0F05D152EA03361CBF104619460AD1B7
:1058200081EA030101F0004141F0FE4141F47001C1
:105830004FF0000070BD41F0FE4141F4780170BDB1
:1058400070B54FF0FF0C4CF4E06C1CEA11541DBF16
:105850001CEA135594EA0C0F95EA0C0F00F0A7F818
:10586000A4EB050481EA030E52EA03354FEA013145
:1058700000F088804FEA03334FF0805545EA131358
:1058800043EA12634FEA022245EA111545EA106520
:105890004FEA00260EF000419D4208BF964244F1B7
:1058A000FD0404F5407402D25B084FEA3202B61AD6
:1058B00065EB03055B084FEA32024FF480104FF4AA
:1058C000002CB6EB020E75EB030E22BFB61A75461E
:1058D00040EA0C005B084FEA3202B6EB020E75EBB1
:1058E000030E22BFB61A754640EA5C005B084FEA19
:1058F0003202B6EB020E75EB030E22BFB61A7546E6
:1059000040EA9C005B084FEA3202B6EB020E75EBF0
:10591000030E22BFB61A754640EADC0055EA060EB1
:1059200018D04FEA051545EA16754FEA06164FEAF4
:10593000C30343EA52734FEAC2025FEA1C1CC0D1A0
:1059400011F4801F0BD141EA00014FF000004FF02D
:10595000004CB6E711F4801F04BF01430020B4F1EE
:10596000FD0C88BFBCF5E06F3FF6AFAEB5EB030CA6
:1059700004BFB6EB020C5FEA500C50F1000041EBA3
:10598000045170BD0EF0004E4EEA113114EB5C0470
:10599000C2BFD4EB0C0541EA045170BD41F4801143
:1059A0004FF0000E013C90E645EA060E8DE60CEA4B
:1059B000135594EA0C0F08BF95EA0C0F3FF43BAF68
:1059C00094EA0C0F0AD150EA01347FF434AF95EA1F
:1059D0000C0F7FF425AF104619462CE795EA0C0F03
:1059E00006D152EA03353FF4FDAE1046194622E7D0
:1059F00050EA410618BF52EA43067FF4C5AE50EAAA
:105A000041047FF40DAF52EA43057FF4EBAE12E799
:105A10004A0011D212F5001211D20DD56FF478732D
:105A2000B3EB62520ED44FEAC12343F0004343EA82
:105A3000505323FA02F070474FF00000704750EACD
:105A4000013002D14FF0FF3070474FF00000704737
:105A5000002301461A46184600F04CB80A44914209
:105A600000F1FF3300D1704710B511F8014B03F876
:105A7000014F9142F9D110BD02440346934200D137
:105A8000704703F8011BF9E738B5104B1D68AB6B85
:105A90000446B3B91820FEF7BBFE0246A86320B93E
:105AA0000B4B0C484221FEF7C3FE0B490B4BC0E9E0
:105AB00000130B4B83600B23838100210120C2E97B
:105AC0000401AB6B00221C615A6138BD40E6032023
:105AD000695D0B00805D0B000E33CDAB34126DE6BB
:105AE000ECDE0500034613F8012B002AFBD1181A3F
:105AF000013870472DE9F843DFF8B8800646D8F83A
:105B000000001F460D46914600F056F8254B1C68D4
:105B100034B9254C1C60254B13B11B68C4F8883080
:105B200063681F2B07DDD8F8000000F047F84FF03E
:105B3000FF30BDE8F8834EB3D4F8880088B91C4B19
:105B400023B9D8F8000000F038F8F0E74FF484707B
:105B5000FEF75EFE0028F4D00023C0E94033C4F80D
:105B60008800636840F8239001229A4000EB83018B
:105B7000D0F800311343C0F80031022EC1F8807014
:105B800002BFD0F804311343C0F804316368D8F879
:105B900000005A1C0233626044F8235000F00EF8F3
:105BA0000020C6E7E8E703205CE7032000000000D0
:105BB00011480B00A4E603207047704770470000AF
:105BC00021400B005D400B0085400B0089400B001D
:105BD00000000000000000000100000002000000C2
:105BE00003000000040000000500000006000000A3
:105BF0000700000008000000000000000000000096
:105C0000AF480B00A5480B009B480B0091480B00C8
:105C100085480B0079480B000D4F0B00154F0B000A
:105C20006D480B0065480B005B480B0051480B00AA
:105C3000454F0B006170700025592D256D2D256491
:105C40005425483A254D3A2553257A0061736374EB
:105C5000696D65000000000000000000294B0B008A
:105C6000194B0B001B4B0B00000000000000000054
:105C70000F4C0B00774C0B004D4C0B0015490B00E3
:105C80003F4C0B00114C0B00214C0B00714C0B00D6
:105C9000314C0B00094C0B0000000000000000001C
:105CA000194D0B00854D0B005D4D0B0015490B0088
:105CB0002D4D0B00494D0B003B4D0B00574D0B007C
:105CC0001B4D0B001F4D0B000000000000000000EA
:105CD000BD4D0B00074E0B00DF4D0B00BF4D0B0001
:105CE000E74D0B00EF4D0B00F74D0B00FF4D0B0088
:105CF0000000000000000000AF4E0B00A54E0B009E
:105D00009B4E0B00514E0B008F4E0B00834E0B0031
:105D10000D4F0B00154F0B00774E0B006F4E0B0015
:105D2000654E0B005B4E0B00454F0B000000000062
:105D300000000000CD4E0B00D74E0B00E14E0B00D3
:105D4000EB4E0B00F54E0B00014F0B000D4F0B00FF
:105D5000154F0B001D4F0B00294F0B00314F0B004F
:105D60003B4F0B00454F0B00005245454E54206DF4
:105D7000616C6C6F63207375636365656465640053
:105D80002F6D6E742F776F726B73706163652F77F1
:105D90006F726B73706163652F4743432D31302DF4
:105DA000706970656C696E652F6A656E6B696E737C
:105DB0002D4743432D31302D706970656C696E65D8
:105DC0002D34385F32303230313132345F31363059
:105DD000363138303634312F7372632F6E65776CFD
:105DE00069622F6E65776C69622F6C6962632F73CD
:105DF00074646C69622F72616E642E63000000002F
:105E000061440B00B9480B00E1480B0005490B0049
:105E1000A9490B00B9490B00D5490B00B94E0B003D
:105E20001D500B00000000000000000000000000FA
:105E3000040000001400000003000000474E55005D
:105E400081947FDF1FB60F3A18EE78DF284EF4E218
:045E50008BD5352495
:045E5400000000004A
:105E58000000C842010000004C5C0B0044E603202F
:105E6800000000000000000000000000000000002A
:105E7800000000000000000000000000000000001A
:105E8800000000000000000000000000000000000A
:105E980000000000000000000000000000000000FA
:105EA80000000000000000000000000000000000EA
:105EB80000000000000000000000000000000000DA
:045EC800ECE70320E0
:105ECC00FFFFFFFF00000102030405060708090A93
:105EDC000B0C0D0E0F101112131415161718191A8E
:085EEC001B1C1D1E1F202800D5
:045EF4007856341296
:04000003B0004020E9
:00000001FF
